:020000040800F2
:1000000000C00020F91A0008A5160008A71600086D
:10001000A9160008AB160008AD1600080000000085
:10002000000000000000000000000000AF16000803
:10003000B116000800000000B3160008B51600084D
:10004000411B0008411B0008411B0008411B000820
:10005000411B0008411B0008411B0008411B000810
:10006000411B0008411B0008411B0008411B000800
:10007000411B0008411B0008411B0008411B0008F0
:10008000411B0008411B0008411B0008411B0008E0
:10009000411B0008411B0008411B0008411B0008D0
:1000A000411B0008411B0008411B0008411B0008C0
:1000B000411B0008411B0008411B0008411B0008B0
:1000C000411B0008411B0008411B0008411B0008A0
:1000D000411B0008411B0008411B0008411B000890
:1000E000411B0008411B0008411B0008411B000880
:1000F000411B0008411B0008411B0008411B000870
:10010000411B0008411B0008411B0008411B00085F
:10011000411B0008411B0008BD160008411B0008D8
:10012000411B0008411B0008411B0008411B00083F
:1001300000000000000000000000000000000000BF
:1001400000000000000000000000000000000000AF
:10015000000000000000000000000000000000009F
:10016000000000000000000000000000000000008F
:10017000000000000000000000000000000000007F
:10018000000000000000000000000000000000006F
:10019000000000000000000000000000000000005F
:1001A000000000000000000000000000000000004F
:1001B000000000000000000000000000000000003F
:1001C000000000000000000000000000000000002F
:1001D000000000000000000000000000000000001F
:0401E0005FF8E0F1F3
:1001E80010B5054C237833B9044B13B10448AFF369
:1001F80000800123237010BD40040020000000008F
:10020800B444000808B5034B1BB103490348AFF3D6
:10021800008008BD0000000044040020B444000829
:1002280081F0004102E000BF83F0004330B54FEA9F
:1002380041044FEA430594EA050F08BF90EA020F0C
:100248001FBF54EA000C55EA020C7FEA645C7FEA9F
:10025800655C00F0E2804FEA5454D4EB5555B8BFC2
:100268006D420CDD2C4480EA020281EA030382EA33
:10027800000083EA010180EA020281EA0303362DC5
:1002880088BF30BD11F0004F4FEA01314FF4801C98
:100298004CEA113102D0404261EB410113F0004FAA
:1002A8004FEA03334CEA133302D0524263EB430361
:1002B80094EA050F00F0A780A4F10104D5F1200EFF
:1002C8000DDB02FA0EFC22FA05F2801841F100015A
:1002D80003FA0EF2801843FA05F359410EE0A5F12E
:1002E80020050EF1200E012A03FA0EFC28BF4CF05F
:1002F800020C43FA05F3C01851EBE37101F0004515
:1003080007D54FF0000EDCF1000C7EEB00006EEB21
:100318000101B1F5801F1BD3B1F5001F0CD34908AB
:100328005FEA30004FEA3C0C04F101044FEA445202
:1003380012F5800F80F09A80BCF1004F08BF5FEA89
:10034800500C50F1000041EB045141EA050130BD69
:100358005FEA4C0C404141EB0101013C28BFB1F57B
:10036800801FE9D291F0000F04BF01460020B1FAC6
:1003780081F308BF2033A3F10B03B3F120020CDA99
:100388000C3208DD02F1140CC2F10C0201FA0CF077
:1003980021FA02F10CE002F11402D8BFC2F1200CDC
:1003A80001FA02F120FA0CFCDCBF41EA0C01904092
:1003B800E41AA2BF01EB0451294330BD6FEA0404DB
:1003C8001F3C1CDA0C340EDC04F11404C4F12002C6
:1003D80020FA04F001FA02F340EA030021FA04F3D8
:1003E80045EA030130BDC4F10C04C4F1200220FA2F
:1003F80002F001FA04F340EA0300294630BD21FA6D
:1004080004F0294630BD94F0000F83F4801306BF32
:1004180081F480110134013D4EE77FEA645C18BF26
:100428007FEA655C29D094EA050F08BF90EA020FBD
:1004380005D054EA000C04BF1946104630BD91EAB5
:10044800030F1EBF0021002030BD5FEA545C05D1B8
:100458004000494128BF41F0004130BD14F58004F7
:100468003CBF01F5801130BD01F0004545F0FE416B
:1004780041F470014FF0000030BD7FEA645C1ABFA0
:10048800194610467FEA655C1CBF0B46024650EAD7
:10049800013406BF52EA033591EA030F41F4002103
:1004A80030BD00BF90F0000F04BF0021704730B589
:1004B8004FF4806404F132044FF000054FF000015E
:1004C80050E700BF90F0000F04BF0021704730B51F
:1004D8004FF4806404F1320410F0004548BF4042F4
:1004E8004FF000013EE700BF42004FEAE2014FEA49
:1004F80031014FEA02701FBF12F07F4393F07F4F24
:1005080081F06051704732F07F4208BF704793F026
:100518007F4F04BF41F40021704730B54FF4607439
:1005280001F0004521F000411CE700BF50EA01023C
:1005380008BF704730B54FF000050AE050EA0102E5
:1005480008BF704730B511F0004502D5404261EB55
:1005580041014FF4806404F132045FEA915C3FF496
:10056800D8AE4FF003025FEADC0C18BF03325FEA33
:10057800DC0C18BF033202EBDC02C2F1200300FAE4
:1005880003FC20FA02F001FA03FE40EA0E0021FA09
:1005980002F11444BDE600BF70B54FF0FF0C4CF4F7
:1005A800E06C1CEA11541DBF1CEA135594EA0C0FA9
:1005B80095EA0C0F00F0DEF82C4481EA030621EAE4
:1005C8004C5123EA4C5350EA013518BF52EA03351F
:1005D80041F4801143F4801338D0A0FB02CE4FF0D1
:1005E8000005E1FB02E506F00042E0FB03E54FF001
:1005F8000006E1FB03569CF0000F18BF4EF0010EF9
:10060800A4F1FF04B6F5007F64F5407404D25FEAF4
:100618004E0E6D4146EB060642EAC62141EA5551A7
:100628004FEAC52040EA5E504FEACE2EB4F1FD0CE9
:1006380088BFBCF5E06F1ED8BEF1004F08BF5FEA67
:10064800500E50F1000041EB045170BD06F0004619
:1006580046EA010140EA020081EA0301B4EB5C04C6
:10066800C2BFD4EB0C0541EA045170BD41F48011BE
:100678004FF0000E013C00F3AB8014F1360FDEBFE3
:10068800002001F0004170BDC4F10004203C35DABF
:100698000C341BDC04F11404C4F1200500FA05F342
:1006A80020FA04F001FA05F240EA020001F00042E3
:1006B80021F0004110EBD37021FA04F642EB060159
:1006C8005EEA430E08BF20EAD37070BDC4F10C0483
:1006D800C4F1200500FA04F320FA05F001FA04F247
:1006E80040EA020001F0004110EBD37041F1000133
:1006F8005EEA430E08BF20EAD37070BDC4F120053E
:1007080000FA05F24EEA020E20FA04F301FA05F2A5
:1007180043EA020321FA04F001F0004121FA04F24D
:1007280020EA020000EBD3705EEA430E08BF20EA1D
:10073800D37070BD94F0000F0FD101F00046400057
:1007480041EB010111F4801F08BF013CF7D041EAD9
:10075800060195F0000F18BF704703F000465200DD
:1007680043EB030313F4801F08BF013DF7D043EAAE
:100778000603704794EA0C0F0CEA135518BF95EA64
:100788000C0F0CD050EA410618BF52EA4306D1D1EB
:1007980081EA030101F000414FF0000070BD50EA0A
:1007A800410606BF1046194652EA430619D094EA94
:1007B8000C0F02D150EA013613D195EA0C0F05D17E
:1007C80052EA03361CBF104619460AD181EA0301D2
:1007D80001F0004141F0FE4141F470014FF000008A
:1007E80070BD41F0FE4141F4780170BD70B54FF025
:1007F800FF0C4CF4E06C1CEA11541DBF1CEA1355A5
:1008080094EA0C0F95EA0C0F00F0A7F8A4EB050486
:1008180081EA030E52EA03354FEA013100F088807D
:100828004FEA03334FF0805545EA131343EA126346
:100838004FEA022245EA111545EA10654FEA0026FB
:100848000EF000419D4208BF964244F1FD0404F5B4
:10085800407402D25B084FEA3202B61A65EB030510
:100868005B084FEA32024FF480104FF4002CB6EBCD
:10087800020E75EB030E22BFB61A754640EA0C004D
:100888005B084FEA3202B6EB020E75EB030E22BF8D
:10089800B61A754640EA5C005B084FEA3202B6EBCE
:1008A800020E75EB030E22BFB61A754640EA9C008D
:1008B8005B084FEA3202B6EB020E75EB030E22BF5D
:1008C800B61A754640EADC0055EA060E18D04FEA1B
:1008D800051545EA16754FEA06164FEAC30343EABB
:1008E80052734FEAC2025FEA1C1CC0D111F4801F88
:1008F8000BD141EA00014FF000004FF0004CB6E781
:1009080011F4801F04BF01430020B4F1FD0C88BF1F
:10091800BCF5E06F3FF6AFAEB5EB030C04BFB6EB2A
:10092800020C5FEA500C50F1000041EB045170BD1D
:100938000EF0004E4EEA113114EB5C04C2BFD4EB4A
:100948000C0541EA045170BD41F480114FF0000ECE
:10095800013C90E645EA060E8DE60CEA135594EA4A
:100968000C0F08BF95EA0C0F3FF43BAF94EA0C0F4D
:100978000AD150EA01347FF434AF95EA0C0F7FF4C2
:1009880025AF104619462CE795EA0C0F06D152EA16
:1009980003353FF4FDAE1046194622E750EA4106FA
:1009A80018BF52EA43067FF4C5AE50EA41047FF40B
:1009B8000DAF52EA43057FF4EBAE12E74FF0FF3C70
:1009C80006E000BF4FF0010C02E000BF4FF0010C41
:1009D8004DF804CD4FEA410C7FEA6C5C4FEA430CBA
:1009E80018BF7FEA6C5C1BD001B050EA410C0CBF09
:1009F80052EA430C91EA030F02BF90EA020F00206B
:100A0800704710F1000F91EA030F58BF994208BFD1
:100A180090422CBFD8176FEAE37040F0010070478E
:100A28004FEA410C7FEA6C5C02D150EA013C07D1E5
:100A38004FEA430C7FEA6C5CD6D152EA033CD3D030
:100A48005DF8040B704700BF8446104662468C462A
:100A58001946634600E000BF01B5FFF7B7FF00285D
:100A680048BF10F1000F01BD4DF808EDFFF7F4FF86
:100A78000CBF012000205DF808FB00BF4DF808ED11
:100A8800FFF7EAFF34BF012000205DF808FB00BF34
:100A98004DF808EDFFF7E0FF94BF012000205DF856
:100AA80008FB00BF4DF808EDFFF7CEFF94BF01200B
:100AB80000205DF808FB00BF4DF808EDFFF7C4FF04
:100AC80034BF012000205DF808FB00BF4A0011D2A6
:100AD80012F5001211D20DD56FF47873B3EB625290
:100AE8000ED44FEAC12343F0004343EA505323FA9C
:100AF80002F070474FF00000704750EA013002D111
:100B08004FF0FF3070474FF000007047844641EACD
:100B1800000313F0030349D1403A23D30B68036061
:100B28004B6843608B688360CB68C3600B69036163
:100B38004B6943618B698361CB69C3610B6A03624B
:100B48004B6A43628B6A8362CB6AC3620B6B036333
:100B58004B6B43638B6B8363CB6BC3634030403118
:100B6800403ADBD230320BD30B6803604B684360EA
:100B78008B688360CB68C36010301031103AF3D2B1
:100B88000C3205D351F8043B40F8043B043AF9D23F
:100B9800043208D0D2071CBF11F8013B00F8013B12
:100BA80001D30B8803806046704700BF082A13D31F
:100BB8008B07B1D010F00303AED0C3F10403D21AEF
:100BC800DB071CBF11F8013B00F8013BA4D331F847
:100BD800023B20F8023B9FE7043AD9D3013A11F8C7
:100BE800013B00F8013BF9D20B7803704B78437056
:100BF8008B788370604670474FEA410C7FEA6C5CE3
:100C080002D150EA013C0AD14FEA430C7FEA6C5CFE
:100C180002D152EA033C02D14FF0000070474FF076
:100C2800010070472DE9F04389B00024049405942D
:100C380006940794334B9A6942F020029A619A69A4
:100C480002F020020092009A9A6942F004029A6126
:100C58009A6902F004020192019A9A6942F0080224
:100C68009A619A6902F008020292029A9A6942F01D
:100C780010029A619B6903F010030393039B224FB0
:100C880001224FF40051384601F042F91F4D01226C
:100C98004FF40061284601F03BF922464FF4004129
:100CA800284601F035F94FF48058CDF810800594A6
:100CB8000226069604A9384601F00AF84FF40053B4
:100CC80004934FF00109CDF814900694079604A9EF
:100CD800384600F0FDFF4FF408430493CDF8149014
:100CE8000694079604A9284600F0F2FFCDF8108074
:100CF8000594069604A9284600F0EAFF09B0BDE865
:100D0800F08300BF00100240000C014000080140C1
:100D1800034B00200021C3E90001C3E90201704729
:100D28006004002000000000D0B506460F460CA362
:100D3800D3E90023FFF730FC02460B460A4CD4E9FE
:100D48000001FFF773FAC4E9000132463B46D4E9D3
:100D58000201FFF769FAC4E90201D0BDAFF30080D0
:100D68003D0AD7A3703DF23F60040020D0B5064687
:100D78000F46094C02460B46D4E90001FFF754FA26
:100D8800C4E9000132463B46D4E90201FFF74CFAB8
:100D9800C4E90201D0BD00BF60040020D0B50646FA
:100DA8000F46094C02460B46D4E90001FFF73EFA0C
:100DB800C4E9000132463B46D4E90201FFF736FA9E
:100DC800C4E90201D0BD00BF60040020054BD3E98F
:100DD8000001054AC2E90201D3E90201034BC3E954
:100DE800020170476004002088040020E804002005
:100DF80008B5FFF78DFFFFF7E9FF08BD0000000009
:100E080008B503A3D3E90023FFF7C6FB08BD00BF5D
:100E18000000000000C05C4008B503A3D3E900232C
:100E2800FFF7BAFB08BD00BFEFFE21B3037D90407A
:100E3800F8B504460D4610461946FFF7E1FF064689
:100E48000F460D4B00200021C3E91601FFF760FF94
:100E580020462946FFF768FFFFF7B8FF064CE56D07
:100E680032463B46A06D25F00041FFF707FE0028FB
:100E7800F4D1FFF7BDFFF8BD88040020F8B504469B
:100E88000D4610461946FFF7C7FF06460F460D4B9D
:100E980000200021C3E91601FFF73AFF2046294642
:100EA800FFF764FFFFF792FF064CE56D32463B46BD
:100EB800A06D25F00041FFF7E1FD0028F4D1FFF710
:100EC80097FFF8BD88040020F8B504460D46104683
:100ED8001946FFF7A1FF06460F460D4B00200021DB
:100EE800C3E91601FFF714FF20462946FFF756FF0E
:100EF800FFF76CFF064CE56D32463B46A06D25F0CA
:100F08000041FFF7BBFD0028F4D1FFF771FFF8BDE2
:100F180088040020000000002DE9F04F85B0CDE9DD
:100F2800000110461946CDE90201634ED6E90423B3
:100F3800FFF77AF904460D46D6E90623DDE90E01E6
:100F4800FFF772F982468B464FF000084FF0804950
:100F580042464B462046294602F014FB06460F46F9
:100F680042464B465046594602F00CFB02460B4699
:100F780030463946FFF75AF902F072FB8046894637
:100F880022462B4650465946FFF730FC02F068F9D6
:100F980006460F460022002320462946FFF76EFD2D
:100FA800002843D10022002320462946FFF766FD8A
:100FB80000284DD10022002320462946FFF77CFD5A
:100FC80038B10022002350465946FFF757FD002844
:100FD80050D1394BD3E9082330463946FFF724F975
:100FE80005460C460022002328462146FFF764FDEB
:100FF800002849D10022002328462146FFF73EFD5C
:10100800002848D142464B46DDE90001FFF710FFB2
:10101800294BDDE90212C3E90412DDE90E12C3E926
:101028000612C3E9086705B0BDE8F08F0022002367
:1010380050465946FFF740FD0028B3D01AA3D3E91C
:10104800002330463946FFF7F1F806460F46A9E770
:101058000022002350465946FFF710FD0028A9D06A
:1010680011A3D3E9002330463946FFF7DFF80646D7
:101078000F469FE70EA3D3E9002330463946FFF712
:10108800D5F806460F46A4E72A462346DDE90001BF
:10109800FFF7F4FEB6E72A4604F10043DDE9000154
:1010A800FFF712FFAEE700BF182D4454FB2109409B
:1010B800182D4454FB211940600400200000000052
:1010C8002DE9F003DFF860C000220023CCE90223F9
:1010D80013A7D7E90067CCE904670024134DCCE9CE
:1010E800064500201249CCE908014FF00008DFF856
:1010F8004490CCE90A89CCE90C23DFF83CC0CCE960
:101108000223CCE90467CCE90645CCE90801CCE91F
:101118000A89CCE90C23BDE8F0037047AFF30080DF
:101128000000000000408FC08804002000408F406D
:101138000080614000001840E80400202DE9F047D5
:1011480082B08246D0E90E89C0E91089D0E900232F
:1011580000F10801D1E90001FFF766F804460D46E1
:10116800CAE90E45DAE91223FFF760F806460F468A
:10117800CAE91267DAE9082320462946FFF70CFA7C
:10118800CDE90001DAE90A2330463946FFF704FAC7
:1011980002460B46DDE90001FFF748F8CDE90001FA
:1011A800DAE90C6742464B4620462946FFF73CF8E9
:1011B80002460B4630463946FFF7EEF902460B4623
:1011C800DDE90001FFF732F804460D46DAE9066763
:1011D80002460B4630463946FFF750FC08B926460A
:1011E8002F46DAE9044532463B4620462946FFF7B2
:1011F80063FC08B934463D46CAE9144502B0BDE867
:10120800F0870000F8B5444B1E68706A00B2FFF71B
:1012180059F902460B46414CC4E900230025756282
:10122800D4E91601FFF702F8C4E916013C4B1F6820
:10123800786A00B2FFF746F902460B46394EC6E90E
:1012480000237D62D6E91601FEF7F0FFC6E9160114
:101258002046FFF773FF04F15005D5E90045002249
:10126800002320462946FFF727FC08B32E4B1E68AB
:1012780020462946FFF72AFC70630023B363294CF4
:101288002046FFF75BFF04F15005D5E90045002231
:10129800002320462946FFF70FFC18B3224B1E688F
:1012A80020462946FFF712FCF06300233364F8BD9B
:1012B8000022002320462946FFF7E0FB28B91A4BF5
:1012C8001B6800225A639A63D9E7174B1C680023EE
:1012D8006363124B5A6D186D02F10041FFF7F6FB7C
:1012E800A063CCE70022002320462946FFF7C6FB6F
:1012F80028B90D4B1B680022DA631A64D7E70A4B3A
:101308001C680023E363074B5A6D186D02F1004116
:10131800FFF7DCFB2064CAE7900500208804002062
:1013280020060020E80400204805002008B50268CF
:10133800034B9A4200D008BDFFF764FFFBE700BFEC
:101348000010004072B6FEE700B591B028220021D7
:1013580006A801F0C1FE00230193029303930493AE
:101368000593012206924FF4803307930A920222D2
:101378000D920E934FF4E0130F9306A800F0E4FDCE
:1013880080B90F23019302210291002303934FF4A4
:1013980080620492059301A801F016F820B911B0F3
:1013A8005DF804FBFFF7CEFFFFF7CCFF000000005D
:1013B80070B5D2B000F0E8FBFFF7C6FFFFF732FCCC
:1013C80000F0CAFA00F080F900F0D8F900F03AFB12
:1013D80000F0ACF9984C0021204601F0B9FC04213A
:1013E800204601F0B5FC0821204601F0B1FC0C2193
:1013F800204601F0ADFC0421904801F023FD0421B2
:101408008F4801F01FFD8F4801F07CF9FFF758FE67
:10141800FFF7EEFC4FF4A0728B4902A8FFF776FBAA
:101428008A4B79A1D1E90001C3E9040178A1D1E986
:101438000001C3E9060100200021C3E908010125D4
:101448001AE06C0002AB03EB051673A3D3E9002383
:10145800D6E90001FFF7A0F8C6E90001013402ABA4
:1014680003EBC4046CA3D3E90023D4E90001FFF71C
:1014780093F8C4E900010135132DE2DD03251AE0D4
:101488006C0002AB03EB051665A3D3E90023D6E98C
:101498000001FFF781F8C6E90001013402AB03EB54
:1014A800C4045FA3D3E90023D4E90001FFF774F86B
:1014B800C4E900010135132DE2DD05251AE06C00B1
:1014C80002AB03EB051656A3D3E90023D6E90001C6
:1014D800FFF762F8C6E90001013402AB03EBC4046C
:1014E8004FA3D3E90023D4E90001FFF755F8C4E975
:1014F80000010135132DE2DD08251AE06C0002AB6E
:1015080003EB051646A3D3E90023D6E90001FFF74C
:1015180043F8C6E90001013402AB03EBC40440A35D
:10152800D3E90023D4E90001FFF736F8C4E9000144
:101538000135132DE2DD0D251AE06C0002AB03EB3B
:10154800051639A3D3E90023D6E90001FFF724F8EB
:10155800C6E90001013402AB03EBC40432A3D3E9AA
:101568000023D4E90001FFF717F8C4E900010135A9
:10157800132DE2DD10251AE06C0002AB03EB051613
:101588002BA3D3E90023D6E90001FFF705F8C6E944
:101598000001013402AB03EBC40425A3D3E9002303
:1015A800D4E90001FEF7F8FFC4E900010135132D65
:1015B800E2DD012421E06300013302AA02EB0412F8
:1015C80002A901EBC303D3E90001CDE900010CCA6C
:1015D80000201F49FFF7A0FC1E4D01224FF40041D7
:1015E800284600F095FC142000F0F2FA00224FF48F
:1015F8000041284600F08CFC0134132CDBDDFFF79A
:10160800F7FBFEE7AFF300807A19C5724B6B1D40FC
:10161800697407B13305F93F666666666666E63F34
:101628009A9999999999F13FCDCCCCCCCCCCF03FF3
:10163800AE47E17A14AEEF3F480500209005002040
:1016480020060020D8050020D044000860040020AF
:101658000000F03F0008014082B00E4B9A6942F04A
:1016680001029A619A6902F001020092009ADA690D
:1016780042F08052DA61DB6903F080530193019BE9
:10168800054A536823F0E06343F00073536002B0E7
:10169800704700BF0010024000000140FEE7FEE76F
:1016A800FEE7FEE7FEE770477047704708B500F0B1
:1016B8007DFA08BD08B5024801F065F808BD00BF0D
:1016C800D80500207047000000B58DB02422002105
:1016D80003A801F001FD0023019302931148124A67
:1016E8000260436083604FF6FF72C26003618361EA
:1016F8000323039301230593099303A901F0A4F994
:1017080050B900230193029301A9064801F000FC97
:1017180028B90DB05DF804FBFFF714FEF1E7FFF7F9
:1017280011FEF6E7900500200008004000B583B0E0
:101738000023009301930F480F4A0260472242603A
:10174800836040F2E732C260836101F025F950B945
:101758000023009301936946064801F0D9FB28B994
:1017680003B05DF804FBFFF7EDFDF1E7FFF7EAFDD5
:10177800F6E700BFD80500200010004000B58DB086
:101788002422002103A801F0A7FC0023019302935F
:101798001248134A0260436083604FF6FF72C260CA
:1017A8000361436183610323039301230593099331
:1017B80003A901F049F950B900230193029301A943
:1017C800064801F0A5FB28B90DB05DF804FBFFF74A
:1017D800B9FDF1E7FFF7B6FDF6E700BF20060020E8
:1017E8000034014000B583B00368134A934205D022
:1017F800124A93420DD003B05DF804FB104BDA692E
:1018080042F00202DA61DB6903F002030093009BF5
:10181800F1E70B4BDA6942F01002DA61DB6903F099
:1018280010030193019B00221146362000F0F6F9BF
:10183800362000F02BFADEE70004004000100040DC
:101848000010024000B589B0002304930593069365
:10185800079303681E4A934205D01E4A93421CD040
:1018680009B05DF804FB1C4BDA6942F00402DA6146
:10187800DA6902F004020092009A9A6942F00802BA
:101888009A619B6903F008030193019BC0230493A9
:1018980004A9124800F01CFAE2E70F4B9A6942F4D7
:1018A80000529A619A6902F400520292029A9A6965
:1018B80042F010029A619B6903F010030393039BA3
:1018C800C023049304A9064800F002FAC8E700BF41
:1018D800000800400034014000100240000C0140A4
:1018E8000010014010B586B00023029303930493BF
:1018F80005930268154B9A4201D006B010BD03F556
:1019080003339A6942F004029A619A6902F0040268
:101918000092009A9A6942F008029A619B6903F062
:1019280008030193019BC0230293022403940594A6
:1019380002A9074800F0CCF9032302930394059405
:1019480002A9044800F0C4F9D7E700BF000400402A
:1019580000080140000C014000B58FB000230A9335
:101968000B930C930D93089309930193029303939C
:1019780004930593069307933048314A026047223F
:101988004260836040F2E732C2600361836101F024
:1019980003F8002839D14FF480530A930AA927483D
:1019A80001F05AF9002833D1244801F021F8002821
:1019B80031D100230893099308A9204801F0A8FA17
:1019C80060BB60230193002202920392059201A951
:1019D8001A4801F0CDF820BB04220DEB020117488C
:1019E80001F0C6F800BB082201A9144801F0C0F8AC
:1019F800E8B90C2201A9114801F0BAF8D0B90F488A
:101A0800FFF770FF0FB05DF804FBFFF79BFCC2E720
:101A1800FFF798FCC8E7FFF795FCCAE7FFF792FCC9
:101A2800CFE7FFF78FFCD7E7FFF78CFCDBE7FFF783
:101A380089FCDEE7FFF786FCE1E700BF48050020E8
:101A48000004004008B50A480A4B03604FF4E1332C
:101A5800436000238360C36003610C224261836199
:101A6800C36101F0DFFA00B908BDFFF76BFCFBE7C3
:101A7800680600200038014010B586B000230293A4
:101A88000393049305930268174B9A4201D006B05A
:101A980010BD03F558439A6942F480429A619A69E5
:101AA80002F480420092009A9A6942F004029A6114
:101AB8009B6903F004030193019B4FF400730293A5
:101AC8000223039303230593084C02A9204600F040
:101AD800FFF84FF48063029300230393049302A951
:101AE800204600F0F5F8D2E7003801400008014030
:101AF8000C480D490D4A002302E0D458C450043361
:101B0800C4188C42F9D30A4A0A4C002301E0136036
:101B18000432A242FBD3FFF7D5FD01F0B9FAFFF773
:101B280047FC7047000000203C0400208C46000859
:101B380040040020B4060020FEE7000010B504466B
:101B48000E4B18784FF47A73B3FBF0F30C4A106815
:101B5800B0FBF3F000F0A8F868B90F2C01D9012008
:101B68000AE0002221464FF0FF3000F057F8054BFD
:101B78001C60002000E0012010BD00BF0400002010
:101B8800000000200800002008B5074A136843F049
:101B980010031360032000F02FF80F20FFF7CEFF8B
:101BA800FFF75AFD002008BD00200240034A1168D3
:101BB800034B1B780B441360704700BFAC06002032
:101BC80004000020014B1868704700BFAC060020D5
:101BD80038B50446FFF7F6FF0546B4F1FF3F02D0DB
:101BE800044B1B781C44FFF7EDFF401BA042FAD3BF
:101BF80038BD00BF04000020074AD36823F4E0631F
:101C08001B041B0C000200F4E060034343F0BF63B5
:101C180043F40033D360704700ED00E000B5194B82
:101C2800DB68C3F30223C3F1070CBCF1040F28BF20
:101C38004FF0040C03F1040EBEF1060F18D9033B54
:101C48004FF0FF3E0EFA0CFC21EA0C0199400EFA07
:101C580003F322EA0303194300280BDB0901C9B285
:101C680000F1604000F5614080F800135DF804FB66
:101C78000023E5E700F00F000901C9B2024B19542F
:101C8800F4E700BF00ED00E014ED00E0002807DBFA
:101C980000F01F02400901239340024A42F8203015
:101CA800704700BF00E100E00138B0F1807F0BD23F
:101CB8004FF0E0235861054AF02182F823100020F4
:101CC800986107221A6170470120704700ED00E013
:101CD80070B582B00024A446B0E0874DAA4210D067
:101CE80007D9864DAA420CD005F58035AA4208D0FE
:101CF80013E0A5F58015AA4203D005F57025AA4280
:101D080007D18A68002A62D0012A5BD0436108247F
:101D180003E0A5F58015AA42F3D0BEF1FF0F58D80D
:101D28000646BEF1FF0F56D84FEA8C0233680F25DE
:101D3800954023EA050304FA02F2134333604B6823
:101D480013F0805F78D06E4B9A6942F001029A6175
:101D58009B6903F001030193019B4FEA9C02951CC8
:101D6800684B53F825600CF003039D000F23AB402C
:101D780026EA0306644B984233D003F58063984201
:101D880000F0988003F58063984200F0958003F591
:101D98008063984200F0928003F58063984200F0D7
:101DA8008F8003F58063984219D006231AE0CC6827
:101DB800B3E7CC680434B0E7CC680834ADE7CC6846
:101DC8000C34AAE703610824A7E70024A5E7042444
:101DD800A3E7061DA5E7ACF108029200A6E70523D4
:101DE80000E00023AB4033430232464D45F8223031
:101DF8004B6813F4803F65D0444A136843EA0E03E6
:101E080013604B6813F4003F62D0404A536843EABA
:101E18000E0353604B6813F4801F5FD03B4A9368EE
:101E280043EA0E0393604B6813F4001F5CD0374AF3
:101E3800D36843EA0E03D3600CF1010C0A6832FA46
:101E48000CF357D0012303FA0CF302EA030E33EA2A
:101E58000202F1D14A68122A3FF63FAF122A3FF632
:101E68005CAF01A555F822F00B1D0008B71D00084E
:101E7800C11D0008D31D0008231D0008231D0008EC
:101E8800231D0008231D0008231D0008231D00082A
:101E9800231D0008231D0008231D0008231D00081A
:101EA800231D0008231D0008231D0008BB1D000872
:101EB800C71D0008012395E7022393E7032391E751
:101EC80004238FE7114A136823EA0E03136098E787
:101ED8000E4A536823EA0E0353609BE70B4A936844
:101EE80023EA0E0393609EE7084AD36823EA0E03A9
:101EF800D360A1E702B070BD0000221000003110CD
:101F080000100240000001400008014000040140A8
:101F18000AB10161704709040161704782B0084B3A
:101F28001B68084AA2FB03235B0A00FB03F3019327
:101F380000BF019B5A1E0192002BF9D102B07047D5
:101F480000000020D34D6210002800F0F18170B528
:101F580082B00446036813F0010F2CD0994B5B68DC
:101F680003F00C03042B1DD0964B5B6803F00C03A5
:101F7800082B12D06368B3F5803F41D0002B55D1B0
:101F880003F1804303F504331A6822F480321A609F
:101F98001A6822F480221A6037E08A4B5B6813F4CF
:101FA800803FE7D0874B1B6813F4003F03D063687A
:101FB800002B00F0BF81236813F0020F75D0814B0E
:101FC8005B6813F00C0F5FD07E4B5B6803F00C036B
:101FD800082B54D02369002B00F08A807A4B012209
:101FE8001A60FFF7EFFD0546764B1B6813F0020FEA
:101FF80075D1FFF7E7FD401B0228F5D903209EE1C4
:10200800704A136843F480331360636843B3FFF77F
:10201800D9FD05466B4B1B6813F4003FCBD1FFF786
:10202800D1FD401B6428F5D9032088E1B3F5A02F22
:1020380009D0644B1A6822F480321A601A6822F4B4
:1020480080221A60E1E703F18043A3F53C331A6864
:1020580042F480221A601A6842F480321A60D4E787
:10206800FFF7B0FD0546574B1B6813F4003FA2D09D
:10207800FFF7A8FD401B6428F5D903205FE1514B09
:102088005B6813F4803FA5D14E4B1B6813F0020F19
:1020980003D02369012B40F04F814A4A136823F08B
:1020A800F803616943EAC1031360236813F0080F5A
:1020B80033D0A369002B5CD0434B0122C3F88024A2
:1020C800FFF780FD05463F4B5B6A13F0020F21D1F5
:1020D800FFF778FD401B0228F5D903202FE1394A84
:1020E800136823F0F803616943EAC1031360DCE76E
:1020F800354B00221A60FFF765FD0546314B1B681A
:1021080013F0020FD1D0FFF75DFD401B0228F5D96F
:10211800032014E10120FFF701FF236813F0040FE7
:1021280000F09680274BDB6913F0805F34D1254B94
:10213800DA6942F08052DA61DB6903F08053019377
:10214800019B0125214B1B6813F4807F26D0E3688F
:10215800012B3DD0002B53D103F1804303F5043309
:102168001A6A22F001021A621A6A22F004021A623A
:1021780033E0154B0022C3F88024FFF723FD054602
:10218800104B5B6A13F0020FC7D0FFF71BFD401B13
:102198000228F5D90320D2E00025D3E70B4A1368BB
:1021A80043F480731360FFF70DFD0646074B1B6869
:1021B80013F4807FCBD1FFF705FD801B6428F5D988
:1021C8000320BCE0001002400000424200700040C2
:1021D8005F4A136A43F001031362E36833B3FFF7FE
:1021E800F1FC06465A4B1B6A13F0020F2FD1FFF77A
:1021F800E9FC801B41F288339842F3D903209EE022
:10220800052B09D0524B1A6A22F001021A621A6A87
:1022180022F004021A62E0E74D4B1A6A42F0040207
:102228001A621A6A42F001021A62D6E7FFF7CAFC7C
:102238000646474B1B6A13F0020F08D0FFF7C2FC93
:10224800801B41F288339842F3D9032077E0E5B93F
:10225800E369002B72D03E4A526802F00C02082A49
:1022680056D0022B17D03B4B00221A66FFF7AAFC68
:102278000446374B1B6813F0007F47D0FFF7A2FCDA
:10228800001B0228F5D9032059E0314AD36923F00D
:102298008053D361DCE72F4B00221A66FFF792FCCC
:1022A80005462B4B1B6813F0007F06D0FFF78AFC0E
:1022B800401B0228F5D9032041E0236AB3F5803F8B
:1022C8001AD023494B6823F47413226A606A0243C4
:1022D80013434B601F4B01221A66FFF773FC044639
:1022E8001B4B1B6813F0007F0ED1FFF76BFC001B24
:1022F8000228F5D9032022E0154A536823F4003355
:10230800A1680B435360DCE7002018E0002016E0CA
:10231800012B16D00E4B5B6803F48031226A914280
:1023280011D103F47013626A93420ED1002006E0C3
:1023380001207047012002E0012000E0002002B0E7
:1023480070BD0120FBE70120F9E70120F7E700BF96
:10235800001002400000424286B0174B0FCB0DF12F
:10236800180C0CE90F0040F20123ADF80430134BB0
:102378005B6803F00C02082A02D0114806B07047C7
:10238800C3F3834218326A4412F8100C13F4803FE6
:102398000DD00A4B5B68C3F3404318336B4413F802
:1023A800143C074A02FB00F0B0FBF3F0E6E7054BEC
:1023B80003FB00F0E2E700BF2846000800100240D7
:1023C80000127A0000093D00002800F0A08070B5D6
:1023D8000D460446524B1B6803F007038B420BD291
:1023E8004F4A136823F007030B431360136803F085
:1023F80007038B4240F08D80236813F0020F17D03B
:1024080013F0040F04D0474A536843F4E063536061
:10241800236813F0080F04D0424A536843F460530A
:102428005360404A536823F0F003A1680B4353609C
:10243800236813F0010F31D06368012B20D0022BE1
:1024480025D0384A126812F0020F64D035494A681C
:1024580022F0030213434B60FFF7B4FB0646314BEF
:102468005B6803F00C036268B3EB820F16D0FFF7CA
:10247800A9FB801B41F288339842F0D9032045E03C
:10248800284A126812F4003FE0D101203EE0254AB4
:10249800126812F0007FD9D1012037E0204B1B6869
:1024A80003F00703AB420AD91D4A136823F0070358
:1024B8002B431360136803F00703AB422DD1236845
:1024C80013F0040F06D0174A536823F4E063E16859
:1024D8000B435360236813F0080F07D0114A536861
:1024E80023F46053216943EAC1035360FFF734FFC3
:1024F8000C4B5B68C3F303130B4AD35CD8400B4BFC
:1025080018600B4B1868FFF719FB002070BD0120FD
:1025180070470120FAE70120F8E70120F6E700BF3D
:102528000020024000100240104600080000002071
:1025380008000020014B1868704700BF0000002009
:1025480008B5FFF7F7FF044B5B68C3F30223034AA0
:10255800D35CD84008BD00BF0010024020460008E8
:1025680008B5FFF7E7FF044B5B68C3F3C223034AD0
:10257800D35CD84008BD00BF0010024020460008C8
:1025880030B4036A23F001030362036A4268846972
:1025980024F073040D682C4323F0020C8B6843EA83
:1025A8000C03104DA84203D005F50065A84205D1DB
:1025B80023F00803CD682B4323F00403094DA842F8
:1025C80003D005F50065A84205D122F440724D6993
:1025D8002A438D692A43426084614A6842630362E0
:1025E80030BC7047002C014030B4036A23F4807378
:1025F8000362036A4268C46924F0730C0C6844EAF5
:102608000C0523F400738C6843EA0423114CA042A0
:1026180003D004F50064A04206D123F40063CC681B
:1026280043EA042323F480630A4CA04203D004F550
:102638000064A04207D122F440524C6942EA0412D5
:102648008C6942EA04124260C5614A68C263036247
:1026580030BC7047002C014030B4036A23F4805327
:102668000362036A4468C26922F4E6420D6842EADA
:10267800052223F400538D6843EA0533094DA84227
:1026880003D005F50065A84204D124F480444D69BF
:1026980044EA85144460C2614A680264036230BC3B
:1026A800704700BF002C014010B4036A046A24F08C
:1026B80001040462846924F0F00C4CEA021223F04D
:1026C8000A030B438261036210BC704710B4046AAA
:1026D80024F0100404628469036A24F4704C4CEA00
:1026E800023223F0A00343EA01138261036210BCA3
:1026F8007047836823F070030B4343F0070383603C
:102708007047000090F83D30DBB2012B2FD1022337
:1027180080F83D300268D36843F00103D360036852
:10272800154A934218D002F50062934214D0B3F1CF
:10273800804F11D0A2F5983293420DD002F58062F5
:10274800934209D002F58062934205D01A6842F09C
:1027580001021A60002070479A6802F00702062AF0
:1027680007D01A6842F001021A6000207047012061
:1027780070470020704700BF002C01407047704729
:1027880070477047704710B5044603681A6912F01D
:10279800020F11D0DA6812F0020F0DD06FF00202AA
:1027A8001A610123037703689B6913F0030F70D044
:1027B800FFF7E6FF0023237723681A6912F0040F56
:1027C80012D0DA6812F0040F0ED06FF004021A610A
:1027D8000223237723689B6913F4407F5FD0204648
:1027E800FFF7CEFF0023237723681A6912F0080F3A
:1027F80012D0DA6812F0080F0ED06FF008021A61D2
:10280800042323772368DB6913F0030F4ED0204697
:10281800FFF7B6FF0023237723681A6912F0100F19
:1028280012D0DA6812F0100F0ED06FF010021A6191
:10283800082323772368DB6913F4407F3DD02046C3
:10284800FFF79EFF0023237723681A6912F0010F10
:1028580003D0DA6812F0010F36D123681A6912F032
:10286800800F03D0DA6812F0800F34D123681A6918
:1028780012F0400F03D0DA6812F0400F32D123680B
:102888001A6912F0200F03D0DA6812F0200F30D145
:1028980010BDFFF774FF2046FFF773FF8AE7204655
:1028A800FFF76DFF2046FFF76CFF9BE72046FFF719
:1028B80066FF2046FFF765FFACE72046FFF75FFF9E
:1028C8002046FFF75EFFBDE76FF001021A61204660
:1028D800FEF72CFDC1E76FF080021A61204600F078
:1028E80056FBC3E76FF040021A612046FFF74AFF24
:1028F800C5E76FF020021A61204600F047FBC7E7E2
:102908000368244A904212D002F5006290420ED029
:10291800B0F1804F0BD0A2F59832904207D002F563
:102928008062904203D002F58062904203D123F086
:1029380070034A681343174A904212D002F50062A6
:1029480090420ED0B0F1804F0BD0A2F59832904251
:1029580007D002F58062904203D002F5806290426F
:1029680003D123F44073CA68134323F080034A69F0
:10297800134303608B68C3620B688362054B9842FC
:1029880003D003F50063984201D10B690363012367
:1029980043617047002C014040B310B5044690F8DD
:1029A8003D30F3B1022384F83D30214651F8040B41
:1029B800FFF7A6FF012384F8463084F83E3084F8F8
:1029C8003F3084F8403084F8413084F8423084F84D
:1029D800433084F8443084F8453084F83D30002092
:1029E80010BD80F83C30FEF7FDFEDBE701207047A4
:1029F80040B310B5044690F83D30F3B1022384F893
:102A08003D30214651F8040BFFF77AFF012384F883
:102A1800463084F83E3084F83F3084F8403084F8FB
:102A2800413084F8423084F8433084F8443084F8E4
:102A3800453084F83D30002010BD80F83C30FFF769
:102A48009DFEDBE701207047002857D070B50D4682
:102A5800044690F83D30002B4BD0022384F83D30DB
:102A68002268936823F4804323F007039360214688
:102A780051F8040BFFF744FF21688A688B690E6AD6
:102A88002868104323F4407C2CF0030CAA68AB6937
:102A980042EA032343EA0C0323F47C4323F0FC03B8
:102AA800EA69D5F80CC04CEA022C4CEA030C2A6AF5
:102AB80013032A6943EA021343EA0C0326F02206A9
:102AC8006A686D6942EA05123243886021688B6141
:102AD80023681A62012384F8463084F83E3084F86B
:102AE8003F3084F8423084F8433084F83D30002089
:102AF80070BD80F83C30FEF7A5FEAEE701207047B8
:102B080030B4036A23F010030362036A44688269DD
:102B180022F4E6420D6842EA052223F020038D687C
:102B280043EA0513114DA84203D005F50065A842F4
:102B380006D123F08003CD6843EA051323F0400350
:102B48000A4DA84203D005F50065A84207D124F430
:102B580040644D6944EA85048D6944EA850444600B
:102B680082614A688263036230BC7047002C01406E
:102B780038B590F83C30012B60D004460D4601234F
:102B880080F83C300C2A1AD8DFE802F00719191926
:102B98001D1919193119191944000068FFF7F0FCBB
:102BA8002268936943F0080393612268936923F0CC
:102BB800040393612268936929690B439361002098
:102BC80084F83C0038BD0068FFF79AFF22689369D3
:102BD80043F4006393612268936923F480639361EB
:102BE80022689369296943EA01239361E7E700684A
:102BF800FFF7FAFC2268D36943F00803D36122681F
:102C0800D36923F00403D3612268D36929690B438C
:102C1800D361D4E70068FFF71FFD2268D36943F446
:102C28000063D3612268D36923F48063D361226887
:102C3800D369296943EA0123D361C0E70220C1E7C8
:102C480010B4846824F47F4C42EA03220A4342EA1F
:102C58000C02826010BC704790F83C30012B66D0A3
:102C680010B50446012380F83C30022380F83D303B
:102C78000268936823F47F4323F0770393600B681B
:102C8800602B40D022D8402B47D00BD9502B0ED1E7
:102C9800CA6849680068FFF707FD50212068FFF7F8
:102CA80028FD04E0202B0CD008D9302B09D00123B3
:102CB80084F83D30002084F83C0010BD0BB1102B87
:102CC800F5D119462068FFF714FDF0E7702B0ED0F8
:102CD800B3F5005FEBD1CB684A6889680068FFF7F5
:102CE800AFFF2268936843F480439360DFE7CB68C3
:102CF8004A6889680068FFF7A3FF2268936843F071
:102D080077039360D3E7CA6849680068FFF7DEFC79
:102D180060212068FFF7EDFCC9E7CA6849680068C8
:102D2800FFF7C2FC40212068FFF7E3FCBFE7022061
:102D3800704701F01F01012303FA01FC036A23EA2B
:102D48000C030362036A02FA01F10B430362704742
:102D580010B50446084600293AD194F83E30DBB253
:102D6800013B18BF0123002B66D1002849D102235B
:102D780084F83E30012201462068FFF7DAFF236815
:102D88002F4A934203D002F50062934203D15A6C52
:102D980042F400425A642368294A934241D002F51A
:102DA800006293423DD0B3F1804F3AD0A2F59832F9
:102DB800934236D002F58062934232D002F58062A7
:102DC80093422ED01A6842F001021A60002032E0C5
:102DD800042908D008290DD094F84130DBB2013B12
:102DE80018BF0123BFE794F83F30DBB2013B18BF9F
:102DF8000123B8E794F84030DBB2013B18BF012348
:102E0800B1E7042805D0082807D0022384F8413008
:102E1800B0E7022384F83F30ACE7022384F840305F
:102E2800A8E79A6802F00702062A07D01A6842F053
:102E380001021A60002010BD0120FCE70020FAE71B
:102E4800002C014038B5044690F83E00C0B294F812
:102E58003F3094F84220D2B294F843C00D46B1B93D
:102E6800012849D1012A48D1022384F83E3084F848
:102E780042307DB3042D39D0012200212068FFF7AC
:102E880058FF012204212068FFF753FF27E0DBB237
:102E98005FFA8CFC042912D0012833D1012B2CD1E4
:102EA800012A31D1BCF1010F30D1022384F83E3020
:102EB80084F83F3084F8423084F84330D9E7012B56
:102EC8001CD1BCF1010F1BD1022384F83F3084F8D8
:102ED8004330CEE7012200212068FFF72AFF22684D
:102EE800136843F001031360002006E00122042167
:102EF8002068FFF71EFFF2E7012038BD0120FCE73C
:102F08001846FAE70120F8E71846F6E71046F4E70E
:102F180090F83C30012B34D010B4012380F83C30B9
:102F2800022380F83D3003685A689C6822F0700CD0
:102F38000A6842EA0C025A600368134A934212D0A4
:102F480002F5006293420ED0B3F1804F0BD0A2F588
:102F58009832934207D002F58062934203D002F57B
:102F68008062934204D124F080044A6814439C6030
:102F7800012380F83D30002380F83C30184610BC0F
:102F880070470220704700BF002C0140704770470F
:102F980010B504460268136923F44053C1680B4313
:102FA800136183680269134342691A430168CB6855
:102FB80023F4B05323F00C031343CB600268536926
:102FC80023F4407381690B4353610268134B9A429F
:102FD80020D0FFF7B5FA024602EB820202EB82022A
:102FE80063689B00B2FBF3F20D48A0FB023149096C
:102FF800642303FB11231B013233A0FB03235B096A
:1030080003F0F00202EB011203F00F0321681344EE
:103018008B6010BDFFF7A4FA0246DDE700380140D7
:103028001F85EB5158B310B5044690F83D300BB3EB
:10303800242384F83D302268D36823F40053D360F6
:103048002046FFF7A5FF2268136923F49043136114
:103058002268536923F02A0353612268D36843F432
:103068000053D36000202064202384F83D3084F886
:103078003E3010BD80F83C30FEF7FEFCD8E701205A
:1030880070470000014B1868704700BF0C00002013
:1030980070B50D4E0D4D761BB61006D0002455F8B0
:1030A800043B01349847A642F9D1094E094D01F075
:1030B800FDF9761BB61006D0002455F8043B013400
:1030C8009847A642F9D170BD80460008804600089E
:1030D8008846000880460008830730B548D0541E4B
:1030E800002A3FD00346CAB201E0013C3AD303F8B4
:1030F800012B9D07F9D1032C2DD9CDB245EA052521
:103108000F2C45EA054536D9A4F1100222F00F0C20
:1031180003F1200EE6444FEA121C03F1100242E9C3
:10312800045542E9025510327245F8D10CF10102FA
:1031380014F00C0F03EB021204F00F0C13D0ACF1D7
:10314800040323F003030433134442F8045B93425B
:10315800FBD10CF003042CB1CAB21C4403F8012BB8
:103168009C42FBD130BD64461346002CF4D1F9E7EC
:1031780003461446BFE71A46A446E0E7024B13B1DC
:10318800024800F005B8704700000000A5310008AB
:10319800002301461A46184600F01AB838B5084BFD
:1031A800084D5B1B9C1007D0043B1D44013C55F89F
:1031B80004399847002CF9D1BDE8384001F07CB9B2
:1031C8008C46000888460008704700BF704700BF5B
:1031D8002DE9F047DFF87CA00646DAF800009846AB
:1031E8000F469146FFF7F0FF1B4B1B68D3F8484189
:1031F80024B365681F2D26DC5EB96B1C0235DAF82E
:103208000000636044F82570FFF7E0FF0020BDE888
:10321800F087012304EB8501C1F88890D4F8882150
:10322800AB401A43022EC4F88821C1F80881E4D1C2
:10323800D4F88C211343C4F88C31DEE703F5A67467
:10324800C3F84841D5E7DAF80000FFF7BFFF4FF0B1
:10325800FF30DCE7380400203C460008000000008E
:103268002DE9F84FB84F21F00046BE4204460D46FE
:103278008A461CDDB54B9E420DDC0AD0B44BB54ADC
:10328800B54CBAF1000FD8BF134620461946BDE821
:10329800F88F0028F2D022462B4620462946FCF714
:1032A800C5FF04460B4620461946BDE8F88FAB4BD0
:1032B8009E4200F3B080A3F1DE739E4240F39D80EE
:1032C8004FF0FF3B22462B4620462946FDF764F97E
:1032D80002460B4680468946FDF75EF982A3D3E98C
:1032E800002306460F46FDF757F981A3D3E90023CB
:1032F800FCF79CFF32463B46FDF74EF97EA3D3E927
:103308000023FCF793FF32463B46FDF745F97CA3C3
:10331800D3E90023FCF78AFF32463B46FDF73CF928
:1033280079A3D3E90023FCF781FF32463B46FDF73A
:1033380033F977A3D3E90023FCF778FF42464B46DD
:10334800FDF72AF974A3D3E900238046894630465D
:103358003946FDF721F972A3D3E90023FCF764FF8E
:1033680032463B46FDF718F96FA3D3E90023FCF773
:103378005BFF32463B46FDF70FF96DA3D3E9002307
:10338800FCF752FF32463B46FDF706F96AA3D3E93C
:103398000023FCF749FF32463B46FDF7FDF8BBF139
:1033A800FF3F02460B464046494653D0FCF73EFFD6
:1033B8006B4E22462B46FDF7EFF86A4B06EBCB0621
:1033C8004FEACB0B9B44DBE90023FCF72DFF224699
:1033D8002B46FCF729FF0B460246D6E90001FCF70D
:1033E80023FFBAF1000F04460B46BFF64EAF01F1BA
:1033F800004320461946BDE8F88F51A3D3E90023BE
:10340800FCF714FF0022584BFDF756FB00283FF449
:1034180057AF2B4639E700F0B1F8544B04469E42AB
:103428000D4629DCA3F550239E4250DC02460B468C
:10343800FCF7FCFE00224C4BFCF7F6FE02460B465E
:103448002046294614461D464FF0000B00224FF037
:10345800804326E0FCF7EAFE22462B46FDF79CF85F
:1034680002460B4620462946FCF7DEFE04460B467C
:1034780020461946BDE8F88F3D4B9E421CDA0022D3
:103488003C4BFCF7D1FE02460B4620462946144623
:103498001D460022374B4FF0020BFDF77DF8002246
:1034A800314BFCF7C3FE02460B4620462946FDF782
:1034B8009DF904460D4605E702460B4600202E49B5
:1034C800FDF794F94FF0030B04460D46FAE6002287
:1034D800254BFCF7A9FE02460B46204629464FF02D
:1034E800010B14461D46DAE711DA22E33AAD903FA4
:1034F800EB0D76244B7BA93F513DD0A0660DB13F23
:103508006E204CC5CD45B73FFF8300922449C23F8A
:103518000D5555555555D53F2F6C6A2C44B4A2BF4F
:103528009AFDDE522DDEAD3F6D9A74AFF2B0B33F17
:10353800711623FEC671BC3FC4EB98999999C93F8F
:103548009C7500883CE4377EFFFF0F440000F07F45
:10355800FB21F93FFB21F9BF182D4454FFFFDB3F46
:1035680040460008604600080000F03FFFFFF23FB9
:10357800008003400000F83F0000F0BF21F0004148
:10358800704700BF2DE9F84314461D46804689461A
:1035980000F08EF8224606460F462B46204629465E
:1035A800FDF72AFB78B90022002340464946FDF77B
:1035B8005BFAD8B10022002320462946FDF754FAC9
:1035C80028B10026254F30463946BDE8F883204605
:1035D800294600F0E7FE0028F5D0204629460022BB
:1035E8000023FDF74BFA0028EDD02CE03046394691
:1035F80000F0D8FEA0B10022002330463946FDF77E
:1036080033FA0028DFD04046494600F0CBFE0028B8
:10361800D9D02046294600F0C5FE0028D3D012E0B4
:103628004046494600F0BEFE0028E4D02046294620
:1036380000F0B8FE0028DED032463B463046394618
:10364800FDF7DAFA20B9FFF71DFD22230360BAE778
:10365800FFF718FD21230360B5E700BF0000F03F26
:10366800F8B504460D4600F0A7FD224606460F466B
:103678002B4620462946FDF7BFFA30B92046294691
:1036880000220023FDF7FAF910B930463946F8BD93
:10369800FFF7F8FC0022002321210160104619469B
:1036A800FDF7A4F806460F4630463946F8BD00BF78
:1036B8002DE9F04F23F0004B80465BEA02001446E8
:1036C8001D460E4693B016D143467D49DB1886F455
:1036D80000225241984271EB020324D2404622460E
:1036E8002B463146FCF7A2FDCDE90001DDE90001DA
:1036F80013B0BDE8F08F1146724A26F00049914593
:103708009A463746434617DD07F1404707F58017C5
:103718001F43E3D122196A4985F400235B4197428C
:1037280071EB0303DAD30023674CCDE90034DDE9FC
:10373800000113B0BDE8F08F40D0624A9345E3DC46
:1037480000F09380002F73DB0022029279B95D4A62
:10375800934500F08E805C4A934500F0A280BAF150
:10376800804F00F0A084594A924500F0C683404635
:1037780031460493FFF702FF049BCDE900015BB3D8
:10378800029AFB0F013B0A93134300F09380504BBE
:103798009B4540F3A38003F104739B454D4B40F3D5
:1037A8001B84994540F39184BAF1000F40F391844A
:1037B800002013B0BDE8F04F00F0EEBD002B8DD116
:1037C800BBE7404631460293FFF7D8FE029BCDE99E
:1037D8000001002B6ED10293B9F1000F04D03A4BCF
:1037E80027F040429A42CBD1BAF1000F07DADDE95F
:1037F800002300203449FCF7F9FFCDE90001002F30
:10380800BFF674AF029B09F1404909F5801959EADE
:10381800030340F06E84DDE9002310461946FCF7E7
:1038280003FD02460B46FCF7E1FFCDE900015DE729
:10383800294A93452FDCA2F1547293450FDD4FEAD4
:103848002B52A2F2FF32142A40F34584C2F134020B
:1038580021FA02F000FA02F28A4200F0778400228C
:10386800029200293FF477AF81E700293FF46AAF5D
:103878004AE709F1404202F5801213433FF453AF7F
:10388800144B994540F36D83BAF1000FC0F263837E
:10389800CDE900452AE70222029200293FF457AFFA
:1038A80065E7BAF1000FC0F2F48340463146CDE92E
:1038B80000011BE74246404633463146AFE700BFAA
:1038C8000000F0FF0000F07F0000F03F0000E03F44
:1038D8000000E041FFFFEF3FFFFF3F43D44B3B4079
:1038E800002B40F04783DDE900010022D14BFCF7B3
:1038F80053FE6FF034028946CDE900014FEA29539F
:10390800A3F2FF339A18CC4BC9F3130949F07F5639
:1039180099450B9246F4401607DDC84B994540F38C
:10392800F58301320B92A6F58016002200230020B1
:103938000027C349CDE90823CDE90601CDE91023C5
:10394800DDE90001DDE9062331468246FCF76CFC1F
:10395800DDE90623B3468046894650463146CDE91F
:103968000CABFCF763FC02460B460020B449FCF79D
:103978003DFF8C46834663465A4640464946CDE954
:103988000EBCFCF709FE82468B46731043F00053C9
:1039980003F50023D9190F465A4651460023002043
:1039A800CDE900120093064602463B46CDE904AB3A
:1039B800DDE900AB50465946FCF7EEFD02460B46E2
:1039C80040464946FCF730FCDDE906238046894637
:1039D80030463946FCF728FC02460B46DDE90C0167
:1039E800FCF722FC52465B46FCF7D6FD02460B4626
:1039F80040464946FCF718FCDDE90E23FCF7CCFDF0
:103A0800DDE90467CDE9060132463B4630463946D2
:103A1800FCF7C2FD74A3D3E9002306460F46FCF762
:103A2800BBFD73A3D3E90023FCF700FC32463B46F9
:103A3800FCF7B2FD70A3D3E90023FCF7F7FB32468D
:103A48003B46FCF7A9FD6EA3D3E90023FCF7EEFB88
:103A580032463B46FCF7A0FD6BA3D3E90023FCF7F5
:103A6800E5FB32463B46FCF797FD69A3D3E9002303
:103A7800FCF7DCFB3246804689463B4630463946F1
:103A8800FCF78AFD02460B4640464946FCF784FD92
:103A980006460F46DDE9040152465B46FCF7C6FBC5
:103AA800DDE90623FCF778FD32463B46FCF7BEFB12
:103AB8005246804689465B4650465946FCF76CFD9F
:103AC80002460B46CDE90C2300225E4BFCF7AEFB09
:103AD80042464B46FCF7AAFB00260F4632463B46B9
:103AE80050465946FCF758FD002282468B46304620
:103AF8003946544BFCF798FBDDE90C23FCF794FBA3
:103B080002460B4640464946FCF78EFBDDE9042396
:103B1800FCF742FD324680468946DDE906013B4610
:103B2800FCF73AFD02460B4640464946FCF77EFB49
:103B380080468946002642464B4650465946FCF781
:103B480075FB35A3D3E9002330460F46FCF724FD67
:103B580052465B4682468B4630463946FCF764FB44
:103B680002460B4640464946FCF75EFB2CA3D3E9C8
:103B78000023FCF711FD02460B463046394616462F
:103B88001F4629A3D3E90023FCF706FD02460B468E
:103B980030463946FCF74AFBDDE91023FCF746FBC3
:103BA80006460B980F46FCF78DFC80468946324640
:103BB8003B4650465946CDE904ABFCF737FBDDE9F7
:103BC8000823FCF733FB4FF0000A42464B46FCF74C
:103BD8002DFB42464B4650468B46FCF725FBDDE95C
:103BE8000823FCF721FB2FE0EF4E454A287ECA3F09
:103BF80065DBC9934A86CD3F01411DA96074D13F59
:103C08004D268F515555D53FFFAB6FDBB66DDB3F6A
:103C1800033333333333E33F000000E009C7EE3F9B
:103C2800FD033ADC09C7EE3FF5015B14E02F3EBE09
:103C38000000F07F000040438E98030079B60B0027
:103C48000000F03F00000840DDE90423FCF7ECFA2F
:103C580002460B4630463946FCF7E6FA029B0A9ABA
:103C6800013B13434FF000020CBFD54BD54BCDE9B8
:103C78000045CDE9022300230093DDE90089CDE961
:103C8800040142464B4620462946FCF7CDFA5246E7
:103C98005B46FCF781FC224606460F46DDE9040137
:103CA8002B46FCF779FC02460B4630463946FCF7B2
:103CB800BDFA42464B4606460F4650465946FCF763
:103CC8006BFC04460D4630462B4639462246FCF727
:103CD800ADFABD4B8046994289468A4640F3178122
:103CE80001F13F4303F5E003034340F02482A2A31C
:103CF800D3E9002330463946FCF798FA02460B46CA
:103D0800404649469046994622462B46FCF78CFA8F
:103D180002460B4640464946FCF7CEFE002840F0D6
:103D28000A82CAF30A534FF480120020A3F2FE332A
:103D380042FA03F35344A549C3F30A52A2F2FF32ED
:103D480041FA02FCC3F3130B23EA0C01C2F114027B
:103D58004BF4801BBAF1000F0B464BFA02FB2946C5
:103D680002462046B8BFCBF1000BFCF75DFA0446CB
:103D78000D463046394622462B46FCF757FA894607
:103D88004FEA0B5A4FF000087DA3D3E900234046C1
:103D98004946FCF701FC22462B4604460D464046A0
:103DA8004946FCF741FA02460B4630463946FCF7CD
:103DB8003BFA75A3D3E90023FCF7EEFB74A3D3E920
:103DC800002306460F4640464946FCF7E5FB0246F7
:103DD8000B4630463946FCF729FA80468946424662
:103DE8004B4620462946FCF721FA22462B46064632
:103DF8000F46FCF719FA02460B4640464946FCF7BF
:103E080013FA3246804689463B4630463946FCF727
:103E1800C3FB61A3D3E9002304460D46FCF7BCFBB2
:103E28005FA3D3E90023FCF7FFF922462B46FCF7F2
:103E3800B3FB5DA3D3E90023FCF7F8F922462B4630
:103E4800FCF7AAFB5AA3D3E90023FCF7EDF92246B5
:103E58002B46FCF7A1FB58A3D3E90023FCF7E6F9AE
:103E680022462B46FCF798FB02460B46304639465D
:103E7800FCF7DAF904460D4622462B463046394609
:103E8800FCF78AFB02460B462046294614461D4687
:103E980000224FF08043FCF7C7F902460B46204644
:103EA8002946FCF7A3FC424604460D464B463046DD
:103EB8003946FCF771FB42464B46FCF7B7F9024618
:103EC8000B4620462946FCF7AFF932463B46FCF73D
:103ED800ABF902460B4600203A49FCF7A5F98A449B
:103EE800BAF5801FC0F223815146DDE90223FCF7B1
:103EF80053FBCDE90001FFF7F9BB002FFFF637AC04
:103F08004046314613B0BDE8F04F00F055B9DFF830
:103F1800C0C021F00043634540F3CF802D4B0B44D4
:103F280003430AD122462B46FCF77EF932463B462C
:103F3800FCF7B8FD00283FF4F4AEDDE902010022E9
:103F48000023FCF79BFD003818BF012013B0BDE823
:103F5800F04F00F01BBA00230024CDE90034FFF72E
:103F6800C5BBBAF1000FF6DA05F1004300940193DE
:103F7800FFF7BCBB0022C1E4FE822B654715973CC6
:103F880000000000432EE63FEF39FAFE422EE63FDE
:103F9800396CA80C615C20BED0A4BE726937663E3D
:103FA800F16BD2C541BDBB3E2CDE25AF6A56113F31
:103FB80093BDBE166CC1663F3E5555555555C53F18
:103FC8000000F0BF0000F03FFFFF8F40FFFF0F0031
:103FD800FFCB904000346F3F994576DB724B994593
:103FE8003FF7E2ABDDE9000100226F4BFCF71CF95B
:103FF80061A3D3E9002306460F46FCF7CDFA60A378
:10400800D3E9002382468B4630463946FCF7C4FA8A
:104018000022CDE90001654B30463946FCF7BCFA71
:1040280002460B4658A1D1E90001FCF7FDF83246DB
:104038003B46FCF7B1FA02460B4600205C49FCF708
:10404800F3F832463B468046894630463946FCF707
:10405800A3FA02460B4640464946FCF79DFA4CA394
:10406800D3E90023FCF798FA02460B46DDE9000184
:10407800FCF7DAF806460F465046594632463B46A4
:10408800FCF7D4F852464FF0000A5B4650468B4680
:10409800DCE54246002033464349FCF7A7FBCDE95F
:1040A8000001FFF723BB4246404633463146FCF742
:1040B80073FACDE90001FFF719BB3D4A934256DC7C
:1040C800DDE90023924693465CE6BAF1000FFFF65D
:1040D8006FAB00203AE700297FF473ABC2F11402FA
:1040E8004BFA02F000FA02F25A4539D00291FFF772
:1040F80032BB029B012B7FF4F9AADDE90045224679
:1041080005F10043CDE90023FFF7F0BA0022294B5F
:104118004FF48027CDE906231FA3D3E90023CDE977
:1041280008231FA3D3E90023CDE9102308E45A4646
:1041380000F03EF9D9E60022DDE902010023FCF790
:104148009DFC003818BF0120FFF733BB00F00100C9
:10415800C0F10202029200293FF4FDAAFFF707BB53
:1041680000F00100C0F102020292FFF7F4BA1B1539
:10417800D9E500BFAFF30080000000604715F73FA6
:1041880044DF5DF80BAE543E555555555555D53F52
:10419800FE822B654715F73F0000004003B8E23F59
:1041A80006D0CF43EBFD4C3E0000F03F0000D03F6F
:1041B8000000E03F0000F83F2DE9F843604E054657
:1041C80036EA01020C4600F09E8000290B46844620
:1041D80054DD091562D0C3F31303C807A1F2FF37F2
:1041E80043F4801304D45B0003EBDC734FEA4C0CFC
:1041F80000264FEADC7202EB43034FF0160E4FF431
:10420800001234467F104FEA4C0CA118994202DC88
:104218005B1A8C1816445B00BEF1010E03EBDC73CD
:104228004FEA52024FEA4C0CEFD1754620204FF06E
:1042380000420AE043D04FEADC71013801EB430346
:104248004FEA4C0C4FEA520242D0A34202EB0E0155
:10425800F0DD002901EB020E0ADBA0461B1B6145BD
:1042680088BF03F1FF334446ACEB010C1544E2E789
:10427800BEF1000FF1DB04F10108EFE721F0004285
:10428800024336D000294CD14FEADC2213461539B7
:104298004FEA4C5C002AF7D0D6024CD400205B00D1
:1042A800DD02044600F10100F9D51A4663460CFA0E
:1042B80000FCC0F12000C340091B13438BE7614594
:1042C800B9D8002901EB020ED2DB98460023CAE7D1
:1042D80053EA0C0311D16808731003F17F5303F5F7
:1042E8000013F20748BF40F0004003EB07590546AA
:1042F8004C4628462146BDE8F883691C16BF681C51
:1043080001364008E8E702460B46FCF745F92A461D
:104318002346FBF78BFF05460C4628462146BDE899
:10432800F8830246FBF780FF02460B46FCF75EFA6D
:1043380005460C46DDE7634620204FF0FF34BAE718
:104348000000F07FD0B506460F461446FEF79AFEE9
:104358000346394630461C60D0BD00BFF0B519464B
:1043680083B080B1144603F100451646CDE90045F7
:10437800DDE900233046FCF70FF9222203B0BDE83F
:10438800F040FFF7DFBF14461D46EEE700224FF06E
:104398008053FFF7E3BF00BF00224FF0E043FFF771
:1043A800DDBF00BF41F0004000F58010C00F70472E
:1043B800C1F30A5370B58C4604460D4616467BBBBE
:1043C800034621F0004C5CEA030328D0324B00225C
:1043D800FCF7E2F8314B04469E420D461ADB8C4648
:1043E800C1F30A53363B40F2FE723344934220DC59
:1043F800002B3EDC13F1350F2CDA4CF250339E4281
:1044080017DC05F0004343F0D27141F4B73124487A
:1044180041F01F011CA3D3E90023FCF7BDF870BDD0
:1044280040F2FF7E7345DED102460B46FBF7FEFEE7
:1044380070BD05F0004343F0FC4141F45F1141F4C5
:10444800105113A3D3E90023164841F03C01FCF7AF
:10445800A3F870BD2CF0FF4C03F136012CF4E00CEE
:104468004CEA01550022204629460F4BFCF794F8E8
:1044780070BD2CF0FF4C2CF4E00C20464CEA0351A4
:1044880070BD00BFAFF3008059F3F8C21F6EA501DD
:104498009C7500883CE4377E00005043B03CFFFF29
:1044A80059F3F8C29C7500880000903CF8B500BF2D
:1044B800F8BC08BC9E467047F8B500BFF8BC08BCFD
:0444C8009E46704755
:1044D0007A19C5724B6B1D40697407B13305F93FFA
:1044E000575BB1BFEC3E2B40096D3997E24A18404B
:1044F0006891ED7C3FD5314071AC8BDB68002A4080
:1045000096B20C71AC3B3340F38E53742487354024
:10451000567DAEB6625F3140AA8251499DA03E40B1
:1045200058CA32C4B14E28402F6EA301BC954340F7
:10453000D218ADA3AAC90E4005A3923A010547407F
:10454000545227A089B01BC0E4141DC9E51F49407F
:1045500074B515FBCB3E33C067D5E76A2B8649405F
:1045600000000000000040C00000000000004840C3
:1045700088855AD3BCFB45C086C954C1A884444031
:10458000F0164850FCF84AC00D71AC8BDB783E4009
:10459000D656EC2FBB6F4EC0401361C3D3FB3040E7
:1045A000F38E537424F74FC0A5BDC11726D3F83F2F
:1045B00055C1A8A44E504FC05305A3923A412DC0F7
:1045C0003EE8D9ACFA6C4CC0C7293A92CB3F3EC00A
:1045D00019E25817B77147C0C2172653050346C0E2
:1045E0003333333333B340C004560E2DB2654BC062
:1045F000AEB6627FD95D31C097FF907EFBD24EC0D0
:10460000BADA8AFD65771DC097FF907EFBD24FC056
:104610000000000000000000010203040607080972
:104620000000000001020304020304050607080954
:104630000A0B0C0D0E0F10100000000010000020DF
:104640004FBB610567ACDD3F182D4454FB21E93FAA
:104650009BF681D20B73EF3F182D4454FB21F93F99
:10466000E2652F227F2B7A3C075C143326A6813C1F
:10467000BDCBF07A8807703C075C143326A6913CCA
:08468000853100080D0200085D
:04468800E90100083C
:10468C000024F400010000001000000010000020C5
:10469C0000000000FC02002064030020CC0300207A
:1046AC0000000000000000000000000000000000FE
:1046BC0000000000000000000000000000000000EE
:1046CC0000000000000000000000000000000000DE
:1046DC0000000000000000000000000000000000CE
:1046EC0000000000000000000000000000000000BE
:1046FC0000000000000000000000000000000000AE
:10470C00000000000000000000000000000000009D
:10471C00000000000000000000000000000000008D
:10472C00000000000000000000000000000000007D
:10473C00000000000000000001000000000000006C
:10474C000E33CDAB34126DE6ECDE05000B00000031
:10475C00000000000000000000000000000000004D
:10476C00000000000000000000000000000000003D
:10477C00000000000000000000000000000000002D
:10478C00000000000000000000000000000000001D
:0C4ABC000000000000000000B006002018
:0400000508001AF9DC
:00000001FF
