:020000040800F2
:10000000C0080020CD010008851A000891150008DD
:100010008518000857030008BD20000800000000F4
:10002000000000000000000000000000F91B0008B4
:100030008D03000800000000E51B0008FB1C000801
:10004000E7010008E7010008E7010008E7010008F0
:10005000E7010008E7010008E7010008E7010008E0
:10006000E7010008E7010008E7010008E7010008D0
:10007000E7010008E7010008E7010008E7010008C0
:10008000E7010008E7010008E7010008E7010008B0
:10009000E7010008E7010008E7010008E7010008A0
:1000A000E7010008E7010008E7010008E701000890
:1000B000E7010008E7010008E7010008E701000880
:1000C000E7010008E7010008E7010008E701000870
:1000D000E7010008E7010008E7010008E701000860
:1000E000E7010008E7010008E7010008E701000850
:1000F000E7010008E7010008E7010008E701000840
:10010000E7010008E7010008E7010008E70100082F
:10011000E7010008E7010008611D0008E701000889
:10012000E7010008E7010008E7010008E70100080F
:1001300000F002F800F03AF80AA090E8000C8244BF
:100140008344AAF10107DA4501D100F02FF8AFF29C
:10015000090EBAE80F0013F0010F18BFFB1A43F0A5
:1001600001031847C43D0000E43D0000103A24BFDD
:1001700078C878C1FAD8520724BF30C830C144BF0C
:1001800004680C607047000000230024002500264E
:10019000103A28BF78C1FBD8520728BF30C148BFEA
:1001A0000B6070471FB51FBD10B510BD00F09EF865
:1001B0001146FFF7F7FF02F02DF900F0BCF803B489
:1001C000FFF7F2FF03BC00F0BFF8000009488047CA
:1001D00009480047FEE7FEE7FEE7FEE7FEE7FEE729
:1001E000FEE7FEE7FEE7FEE704480549054A064B41
:1001F000704700005D1D000831010008C0020020AA
:10020000C0080020C0040020C004002010B5203A1F
:10021000C0F00B80B1E81850203AA0E81850B1E8BF
:100220001850A0E81850BFF4F5AF5FEA027C24BF75
:10023000B1E81850A0E8185044BF18C918C0BDE86C
:1002400010405FEA827C24BF51F8043B40F8043B35
:1002500008BF7047D20728BF31F8023B48BF11F8EA
:10026000012B28BF20F8023B48BF00F8012B704744
:100270004FF0000200B5134694469646203922BF3F
:10028000A0E80C50A0E80C50B1F12001BFF4F7AF8A
:10029000090728BFA0E80C5048BF0CC05DF804EB6C
:1002A000890028BF40F8042B08BF704748BF20F8DA
:1002B000022B11F0804F18BF00F8012B70477047D8
:1002C0007047704710B500F009F8006810BD10B510
:1002D000044600F003F8046010BD000000487047B9
:1002E0006002002000487047600200207546FFF75A
:1002F000F9FFAE4605006946534620F007008546E3
:1003000018B020B5FFF770FFBDE820404FF00006A1
:100310004FF000074FF000084FF0000B21F00701ED
:10032000AC46ACE8C009ACE8C009ACE8C009ACE830
:10033000C0098D46704710B50446AFF300802046D3
:10034000BDE81040FFF73BBF01491820ABBEFEE7F8
:10035000260002007047FEE703480021C0E90011B3
:10036000C0E9021170470000D00000200648A0F14B
:10037000C003D0E90012C3E90212D0E9021003F170
:100380006002C2E902107047D000002070470000F0
:100390000022014B03F0F2B800C05C402DE9F84F99
:1003A0000446D4E90E23C4E91023D4E90201174618
:1003B0009946D4E9002303F007FB0546C4E90E0182
:1003C000D4E9120C0E462A463346614602F042FE3C
:1003D000C4E9120180468A463A464B4628463146D1
:1003E00003F0F2FAD4E90C2303F0C8F88346009135
:1003F000D4E90A014246534603F0C0F80746D4E95F
:10040000080C89462A463346614603F0B7F83A4657
:100410004B4602F01FFE5A46009B02F01BFED4E939
:10042000062305460E4603F0A7F901D2D4E9065685
:10043000D4E904232846314603F064F801D2D4E914
:100440000456C4E91456BDE8F88F72B6FEE7000002
:1004500070B5044600F010F90546601C02D004484F
:100460000078044400F008F9401BA042FAD370BDA4
:10047000000000202DE9F84FDFF8C8910024A9F111
:10048000040B23460F2709F1040AABF1040ED1E057
:100490000125A54006EA0502AA4276D1DFF8A8C1E7
:1004A0004E68A6EB0C0866452BD00DDC032E34D02D
:1004B00005DC36B3012E19D0022E2FD11BE0112EF0
:1004C00016D0122E2AD119E0B8F5881F19D006DCF3
:1004D000B8F5803F15D0B8F5801F1FD111E0B8F5F1
:1004E000001F0ED0B8F5041F18D10AE0CB6815E044
:1004F000CB681B1D12E0CB6808330FE0CB680C33D0
:100500000CE08B682BB1012B4FF0080303D0456141
:1005100004E0042302E0056100E00023FF2A01D883
:10052000064601E000F104064FEA840501D9A5F171
:100530002005D6F8008007FA05FC28EA0C0803FA23
:1005400005F548EA0508C6F800804D68ED0070D54D
:100550003E4DAE6946F00106AE61AD6924F003067A
:1005600005F0010500953A4D06EB050CDCF8085046
:10057000A607360F07FA06F825EA0805DFF8D48043
:10058000404503D14FF0000825E052E0DFF8C88075
:10059000404502D14FF001081DE0DFF8C080404522
:1005A00002D14FF0020816E0DFF8B480404502D1D6
:1005B0004FF003080FE0DFF8AC80404502D14FF068
:1005C000040808E0DFF8A080404502D14FF005089C
:1005D00001E04FF0060808FA06F848EA0508CCF8EA
:1005E00008804D68D9F80060ED024D4601D51643EC
:1005F00000E096432E604D68DAF80060AD02554683
:1006000001D5164300E096432E604D68DBF800608C
:10061000AD035D4601D5164300E096432E604D685C
:10062000DEF80060ED03754601D5164300E0964301
:100630002E60641C0A681646E2407FF429AFBDE8CC
:10064000F88F000008040140000011100010024063
:100650000000014000080140000C01400010014072
:100660000014014000180140001C01400AB1016162
:1006700070470904FBE700000148806870470000EC
:1006800000000020024881680278114481607047B0
:1006900000000020074810B5016841F0100101601A
:1006A000032000F075F80F2000F006F800F024F8A1
:1006B000002010BD0020024070B50D4D04464FF4DF
:1006C0007A712878B1FBF0F00A490968B1FBF0F0C3
:1006D00000F0DCFA48B9102C07D200222146501E47
:1006E00000F036F800206C6070BD012070BD000085
:1006F000000000200C0000200C4808B5816941F082
:1007000001018161816901F001010091C16941F03C
:100710008051C161C06900F0805000900448416878
:1007200021F0E06141F00071416008BD001002401D
:1007300000000140002809DB00F01F020121914068
:100740004009800000F1E020C0F80011704700006F
:10075000F0B40E4B1B680C46C3F30223C3F107052C
:10076000042D00D90425191D072901D2002300E01A
:10077000DB1E012606FA05F1491E214099409E40E4
:10078000761E16403143F0BC01F0ADBC0CED00E02C
:10079000064900F0070208684FF6FF03184040EAD8
:1007A0000220034A10430860704700000CED00E08F
:1007B0000000FA052DE9F0470F46050061D0434ED1
:1007C000306800F00700B84209D2306820F0070016
:1007D00038433060306800F00700B84251D12868D3
:1007E0003B4C810712D5400703D5606840F4E060B8
:1007F00060602878000703D5606840F4605060604E
:100800006068A96820F0F000084360602878C0079D
:1008100028D06868012810D02168022810D08907E4
:1008200000292EDA616821F0030101436160FFF7BE
:1008300023FF804641F288390DE021688903EFE704
:100840008901EDE7FFF718FFA0EB0801494502D940
:100850000320BDE8F0876068696800F00C00B0EB29
:10086000810FEFD1306800F00700B8420BD9306833
:1008700020F0070038433060306800F00700B842CD
:1008800001D00120E5E72878400705D56068E968D0
:1008900020F4E060084360602878000706D56068AF
:1008A000296920F4605040EAC100606000F038F827
:1008B0006168084AC1F30311515CC84006490860E9
:1008C00006480068FFF7F8FE0020C2E7002002405B
:1008D00000100240E23D00080C000020040000204F
:1008E0000448054900684968044AC1F30221515C83
:1008F000C84070470C00002000100240F23D000884
:100900000448054900684968044AC1F3C221515CA2
:10091000C84070470C00002000100240F23D000863
:100920000E4A51680E4801F00C03042B11D0082B1D
:100930000FD10C48C1F38343C903C05C0AD5516889
:10094000084AC1F34041921E515C054A5043B0FB36
:10095000F1F070470449484370470000001002401E
:1009600000127A00D23D000800093D002DE9F84F41
:10097000040070D02078C04DC00749D06868C0F32B
:100980008100012807D06868C0F38100022809D1DE
:100990006868C00306D52868800339D560680028D8
:1009A000E7D035E06068B0F5803F0BD010B1B0F50E
:1009B000A02F11D0286820F480302860286820F407
:1009C000802002E0286840F480302860606890B1A0
:1009D000FFF752FE06460AE0286840F480202860AF
:1009E000F0E700BFFFF748FE801B642873D8286833
:1009F0008003F7D50CE0FFF73FFE064605E000BF99
:100A0000FFF73AFE801B6428F0D828688003F7D4EB
:100A100020789A4E80074FF001094FF0000839D531
:100A2000686810F00C0F07D06868C0F381000228D6
:100A300009D16868C00306D42868800714D52069E6
:100A4000012808D110E02069B0B1C6F80090FFF786
:100A500013FE074605E00AE1FFF70EFEC01B022861
:100A6000C4D828688007F7D52868616920F0F800A5
:100A700040EAC10028600DE0C6F80080FFF7FCFDE9
:100A8000074604E0FFF7F8FDC01B022823D82868BA
:100A90008007F7D4207800072CD57948A169D9B10F
:100AA000C0F80090FFF7E8FD074604E0FFF7E4FD1B
:100AB000C01B02280FD8686A8007F7D571484FF429
:100AC000FA510068B0FBF1F0009000BF0098411EA1
:100AD0000091FAD20EE080E0C0F80080FFF7CCFD74
:100AE000074604E0FFF7C8FDC01B022875D8686AF6
:100AF0008007F7D42078400760D5E8690027C00058
:100B000008D4E86940F08050E861E869012700F006
:100B1000805000905C480168C90513D40168834681
:100B200041F480710160FFF7A7FD824606E000BF37
:100B3000FFF7A2FDA0EB0A0064284ED8DBF8000006
:100B4000C005F5D5E06801280AD008B1052813D002
:100B5000286A20F001002862286A20F0040002E0E0
:100B6000286A40F001002862E06841F2883B98B1B1
:100B7000FFF782FD82460BE0286A40F004002862FD
:100B8000EEE700BFFFF778FDA0EB0A0159455AD800
:100B9000286A8007F6D50CE0FFF76EFD824605E077
:100BA000FFF76AFDA0EB0A0159454CD8286A800777
:100BB000F6D41FB1E86920F08050E861E06988B39D
:100BC0006968C1F38101022944D00228C6F8608017
:100BD00004D0FFF751FD044638E034E0FFF74CFD48
:100BE000074604E0FFF748FDC01B02282BD8286801
:100BF0008001F7D4206AB0F5803F05D16868A1680C
:100C000020F4003008436860D4E9080108436968AB
:100C100021F4741108436860C6F86090FFF72CFD5A
:100C2000044606E025E000BFFFF726FD001B022872
:100C300009D828688001F7D51BE000BFFFF71CFD2D
:100C4000001B022802D90320BDE8F88F2868800124
:100C5000F4D40EE00128F7D06868226A00F48031ED
:100C6000914204D1616A00F47010884201D00120E1
:100C7000EAE70020E8E700000010024000004242DE
:100C8000800442420C0000200070004010B5401E5D
:100C9000B0F1807F01D3012010BD4FF0E0246061EE
:100CA0000F21601701F01FFA0020A06107202061CA
:100CB000002010BD7047704770B590F83C20012AA5
:100CC0002CD0012480F83C40022280F83D200368AB
:100CD0005A689D6822F070060A6832435A60104BC9
:100CE00002689A420ED00F4B9A420BD0B2F1804F5D
:100CF00008D00D4B9A4205D00C4B9A4202D00C4BB7
:100D00009A4204D1496825F080031943916080F824
:100D10003D40002180F83C10084670BD022070BDA7
:100D2000002C014000340140000400400008004055
:100D3000000C004010B5040003D094F83D0010B141
:100D400007E0012010BD002084F83C00204600F0A0
:100D50001FF8022084F83D00211D206801F006F8EC
:100D6000012084F8460084F83E0084F83F0084F8AF
:100D7000400084F8410084F8420084F8430084F87D
:100D8000440084F8450084F83D00002010BD0000B8
:100D900008B5114A01681148914208D1C16941F072
:100DA0000201C161C06900F00200009008BD0C4A58
:100DB0009142FBD1C16941F01001C161C0690022BB
:100DC00000F01000009011463620FFF7C1FCBDE88E
:100DD00008403620FFF7AEBC00040040001002407F
:100DE0000010004090F83D10012901D0012070470B
:100DF000022180F83D100168CA6842F00102CA6011
:100E000000680E4988420ED00D4988420BD0B0F1DF
:100E1000804F08D00B49884205D00B49884202D048
:100E20000A49884204D1816801F00701062903D0EC
:100E3000016841F00101016000207047002C014071
:100E4000003401400004004000080040000C004055
:100E500070B5044690F83C000025012817D0012603
:100E600084F83C60022084F83D002068826822F00B
:100E7000770222F47F4282600868502838D00DDC67
:100E800020284FD005DC90B3102811D14AE0022071
:100E900070BD302846D040280AD13BE060282FD0D2
:100EA00070280DD0B0F5805F03D0B0F5005F12D090
:100EB000012584F83D60002084F83C00284670BD80
:100EC000CB68D1E90121206800F0A3FF2068816888
:100ED00041F0770109E0CB68D1E90121206800F0F9
:100EE00098FF2068816841F480418160E1E719E062
:100EF000CA684968206801F061F85021206806E05E
:100F0000CA684968206801F06AF86021206800F02A
:100F10008AFFCEE7CA684968206801F04FF840218F
:100F20002068F4E7226801461046F0E72DE9F04119
:100F30000D46040003D094F83D0018B108E00120EC
:100F4000BDE8F081002084F83C00204600F040F825
:100F5000022084F83D002068816844F20702914332
:100F60008160211D206800F001FF2268906891696E
:100F7000166A2B68AF69034340F20330814341EAAC
:100F80000721A868EF6908434FF6FC418843E968E8
:100F900040EA0720014328692F6A000140EA073030
:100FA000084369686D6926F0220646EA051529435B
:100FB00093602268906154F8460B0162012004F8A6
:100FC0001F09E0752076E0762077A0750020B7E74E
:100FD00000B585B0002100910191029103911A4B57
:100FE00002681A48C0219A4213D1C26942F0040231
:100FF000C261C26902F004020492826942F00802EE
:1010000082618069009100F00800049069461048F0
:1010100015E0104B9A4214D1826942F40052826169
:10102000826902F400520492826942F010028261E5
:101030008069009100F01000049069460648FFF7AF
:1010400019FA05B000BD0000000800400010024081
:10105000000C0140003401400010014070B590F8D0
:101060003E60044690F83F5090F8423090F843209C
:10107000022021B104290ED0012E1BD114E0012E33
:1010800018D1012B16D184F83E0084F842000122C9
:101090000021206820E0012D0CD1012A0AD184F81A
:1010A0003F0084F8430014E0012D03D1012B01D14E
:1010B000012A01D0012070BD84F83E0084F83F0071
:1010C00084F8420084F8430001220021206800F0E7
:1010D00093FE01220421206800F08EFE2068016842
:1010E00041F001010160002070BD704770B50446F9
:1010F000006801694FF00005C943890715D4C1682C
:10110000C943890711D4E91E0161012020772068B5
:1011100080698007204602D0FFF7E7FF04E000F077
:10112000D1F8204600F063F9257720680169C943AA
:10113000490717D4C168C943490713D46FF00401A4
:101140000161022020772068806910F4407F2046EA
:1011500002D0FFF7CAFF04E000F0B4F8204600F028
:1011600046F9257720680169C943090716D4C16883
:10117000C943090712D46FF00801016104202077E8
:101180002068C0698007204602D0FFF7AEFF04E068
:1011900000F098F8204600F02AF9257720680169C8
:1011A000C943C90617D4C168C943C90613D46FF02F
:1011B00010010161082020772068C06910F4407F89
:1011C000204602D0FFF791FF04E000F07BF82046B4
:1011D00000F00DF9257720680169C943C90708D1D6
:1011E000C168C943C90704D1891E0161204600F0C6
:1011F00059F920680169C943090609D4C168C9437E
:10120000090605D46FF0800101612046FFF752FD09
:1012100020680169C943490609D4C168C943490620
:1012200005D46FF040010161204600F045F92068C7
:101230000169C94389060BD4C168C943890607D42B
:101240006FF0200101612046BDE87040FFF733BD1B
:1012500070BD000010B586B000210091019102918F
:10126000039100681349884221D11348816941F0F4
:1012700004018161816901F004010491816941F0F7
:10128000080181618069022400F008000490C020F8
:10129000CDE90004694609480394FFF7EBF8032001
:1012A000CDE90004694606480394FFF7E3F806B069
:1012B00010BD000000040040001002400008014082
:1012C000000C0140704770B5044690F83C000026C1
:1012D0000D4601280FD0012084F83C006AB1042A91
:1012E0001DD0082A2FD00C2A3FD00126002084F8D8
:1012F0003C00304670BD022070BD206800F09CFDAF
:101300002068816941F0080181612068816921F0CC
:1013100004018161206881692A69114311E0206814
:1013200000F0BAFD2068816941F4006181612068A4
:10133000816921F480618161206881692A6941EABB
:1013400002218161D2E7206800F0DCFD2068C169DC
:1013500041F00801C1612068C16921F00401C16147
:101360002068C1692A69114311E0206800F0FEFD80
:101370002068C16941F40061C1612068C16921F43C
:101380008061C1612068C1692A6941EA0221C161A5
:10139000ACE710B5040003D094F83D0010B107E0AD
:1013A000012010BD002084F83C00204600F01EF80B
:1013B000022084F83D00211D206800F0D7FC0120A8
:1013C00084F8460084F83E0084F83F0084F840002A
:1013D00084F8410084F8420084F8430084F8440013
:1013E00084F8450084F83D00002010BD7047704728
:1013F00010B50446022249B104290ED0082913D0A1
:1014000094F84100012816D0012010BD94F83E0048
:101410000128F9D184F83E200FE094F83F0001281C
:10142000F2D184F83F2008E094F840000128EBD185
:1014300084F8402001E084F841200122206800F077
:10144000DBFC13492068134A884201D0904203D143
:10145000436C43F400434364206888420DD09042BB
:101460000BD0B0F1804F08D00B49884205D00B4912
:10147000884202D00A49884204D1816801F00701FC
:10148000062903D0016841F001010160002010BD70
:10149000002C0140003401400004004000080040DE
:1014A000000C004000680349884201D100F01ABBDB
:1014B0007047000000100040704770B5040004D071
:1014C00094F84100002510B106E0012070BD84F8B9
:1014D0004050204600F024F8242084F84100206881
:1014E000C16821F40051C160204600F08BFD2068E6
:1014F000016921F4904101612068416921F02A01CC
:1015000041612068C16841F40051C16065642020D8
:1015100084F8410084F842006563002070BD00003B
:1015200030B585B0002400940194029403940068BF
:101530001449884224D11448816941F48041816171
:10154000816901F480410491816941F00401816164
:1015500080690E4D00F0040004904FF4007000907C
:10156000022001900320039069462846FEF782FF7F
:101570002815CDE90004694628460294FEF77AFF53
:1015800005B030BD003801400010024000080140A5
:10159000FEE700002DE9F04385B000242F480094B9
:1015A000019402940394816941F020018161816971
:1015B00001F020010491816941F004018161816998
:1015C00001F004010491816941F0080181618169A0
:1015D00001F008010491816941F010018161806985
:1015E000012200F01000DFF878805703049039469C
:1015F0004046FFF73BF8DFF86C900122D1024846E5
:10160000FFF734F80022B9004846FFF72FF87E10A4
:101610000225009669464046CDE90145FEF72AFFBE
:1016200000970127694640460197CDE90245FEF73C
:1016300021FF4FF40840CDE9000769464846CDE94F
:101640000245FEF717FF009669464846CDE9014579
:10165000FEF710FF05B0BDE8F08300000010024067
:10166000000C01400008014010B58EB00024079422
:10167000089409940A940B941C2168460C94FEF774
:10168000F7FD2A48284901604721C0E9011440F2CA
:10169000E731C0E903148461FFF74CFB08B1FEF7A2
:1016A000D4FE4FF48050079007A92048FFF7D0FBE5
:1016B00008B1FEF7CAFE1D48FFF76BFE08B1FEF742
:1016C000C4FE0B940BA919480C94FFF7F5FA08B166
:1016D000FEF7BBFE6020CDE90004029400226946BB
:1016E00012480494FFF7EFFD08B1FEF7AEFE0422A6
:1016F00069460E48FFF7E7FD08B1FEF7A6FE08228F
:1017000069460A48FFF7DFFD08B1FEF79EFE0C228E
:1017100069460648FFF7D7FD08B1FEF796FE034875
:10172000FFF798FD0EB010BD00040040F800002047
:1017300010B58CB024216846FEF79AFD00241648A7
:10174000099414490A94C0E900144FF6FF71C0E9E6
:101750000241046184610320CDE900040120CDE948
:1017600002040494CDE90540079469460A480894A8
:10177000FFF7DCFB08B1FEF768FE099409A90648EB
:101780000A94FFF799FA002801D0FEF75EFE0CB02C
:1017900010BD000000080040400100201CB50024DE
:1017A0000E4800940C49019401604721C0E90114DE
:1017B00040F2E7318461C160FFF7BCFA08B1FEF77F
:1017C00044FE0094694605480194FFF775FA002825
:1017D00001D0FEF73AFE1CBD001000408801002039
:1017E00010B58CB024216846FEF742FD002416484F
:1017F000099414490A94C0E900144FF6FF71C0E936
:1018000002410461446184610320CDE900040120A8
:10181000CDE902040494CDE90540079469460A48DD
:101820000894FFF783FB08B1FEF70FFE099409A99E
:1018300005480A94FFF740FA002801D0FEF705FE9C
:101840000CB010BD00340140D00100200C4810B590
:101850000A4901604FF4E1314160002181600C22AE
:10186000C160C0E904128161C161FFF726FE002852
:1018700003D0BDE81040FEF7E8BD10BD00380140C0
:1018800018020020FEE7000070B505460E460A4A21
:101890000A4B01F073FE0A4CD4E9002301F0DAFB95
:1018A000C4E90001D4E902232846314601F09AFF39
:1018B000C4E9020170BD00003D0AD7A3703DF23FAC
:1018C000D00000202DE9F041074688461046194611
:1018D000FEF75EFD0D4E04460020C6E916000D46DB
:1018E000FEF73AFD38464146FFF7CEFFFEF73EFDD4
:1018F000D6E9160121F0004122462B4601F002FEF6
:10190000F6D3BDE8F04100F0F1B90000100000206E
:101910002DE9FF5F574D82B08246D5E904238B46FF
:10192000DDE9040102F050F8D5E9062304460F462C
:10193000DDE9100102F048F88046894600224FF0A8
:10194000804300F075FE06460D4600224FF08043AE
:101950002046394600F06CFE32462B4601F07AFBF9
:1019600001F052FBCDE9000122463B464046494684
:1019700001F02CFC00F03EFC05460E46002213460A
:101980002046394601F0BEFD0ED2002213464046E5
:10199000494601F0F1FE07D2374A384B2846314616
:1019A00001F058FB05460E460022134620463946F4
:1019B00001F0A8FD0ED2002213464046494601F030
:1019C000A1FD07D22C4A2D4B2846314601F042FB9F
:1019D00005460E46002213462046394601F0CCFE4D
:1019E0000ED2002213464046494601F08BFD07D235
:1019F000214A234B2846314601F02CFB05460E4672
:101A0000DFF8708028463146D8E9082301F0DCFF72
:101A1000002204460F46134601F0AEFE06D22246CF
:101A20003B465046594600F0FFF80DE000221346B1
:101A30002046394601F066FD06D287F00043224673
:101A40005046594600F02CF9DDE90023504659462E
:101A5000FFF738FFDDE904124046C0E90412DDE972
:101A60001012183080E82600C8F8246006B0BDE8DF
:101A7000F09F0000D0000020182D4454FB210940A5
:101A8000FB211940FEE7000011480021114AC0E97E
:101A90000211C0E90412104AC0E906120F4AC0E957
:101AA00008120F4AC0E90A12C0E90C116030094A55
:101AB000C0E90211C0E90412074AC0E90612074A48
:101AC000C0E90812064AC0E90A12C0E90C117047C1
:101AD0001000002000408FC000408F4000407F4039
:101AE000000018402DE9F0473C483A4F3A4C066850
:101AF000002507F16009706A00B201F0ECFCC7E94B
:101B000000017562D7E91601D7E9002301F0A2FAB6
:101B1000C7E91601324800688046406A00B201F009
:101B2000DAFC4E46C6E90001C8F82450D6E9160191
:101B3000D6E9002301F08EFAC6E916013846FEF711
:101B40002DFCD7E914010022134601F015FE1CD22A
:101B5000D7E9140101F092FC21684863206885638D
:101B60001C486030FEF71AFCD6E914010022134627
:101B700001F002FE1BD2D6E9140101F07FFC2168BE
:101B8000C86320680564BDE8F087D7E91401002226
:101B9000134601F0B7FC20684563DFD2D7E9140192
:101BA00081F0004101F06AFC21688863D8E7D6E93A
:101BB00014010022134601F0A5FC2068C563E0D2A1
:101BC000D6E9140181F0004101F058FC2168086455
:101BD000D9E7000010000020F8000020400100209C
:101BE000D001002070470000014A024B01F0C6BC42
:101BF000EFFE21B3037D90407047000070B5094CA3
:101C000005460E46D4E9002301F0ECFDC4E90001CD
:101C1000D4E902232846314601F0E4FDC4E902017B
:101C200070BD0000D00000202DE9F0410746884635
:101C300010461946FFF7D8FF0D4E04460020C6E9AE
:101C400016000D46FEF788FB38464146FFF7D6FFE3
:101C5000FEF78CFBD6E9160121F0004122462B4607
:101C600001F050FCF6D3BDE8F04100F03FB80000B1
:101C70001000002070B5094C05460E46D4E900233B
:101C800001F0E8F9C4E90001D4E90223284631460D
:101C900001F0E0F9C4E9020170BD0000D0000020AD
:101CA0002DE9F0410746884610461946FFF79CFF8C
:101CB0000D4E04460020C6E916000D46FEF74CFB0B
:101CC00038464146FFF7D6FFFEF750FBD6E916012E
:101CD00021F0004122462B4601F014FCF6D3BDE86A
:101CE000F04100F003B800001000002000B5FEF73E
:101CF00033FB5DF804EBFEF739BBFEF7C3BC30B530
:101D00008FB028216846FEF7B3FA14210AA8FEF71F
:101D1000AFFA01210804CDE9001000240294022545
:101D20000491CDE907504FF4E01009906846FEF7A2
:101D30001DFE08B172B6FEE70F20CDE90A054FF48B
:101D40008060CDE90C4002210AA80E94FEF732FD16
:101D5000002801D072B6FEE70FB030BD704700001A
:101D60000148FFF7C3B9000088010020F0B5026800
:101D70001C4B1D4D1D4E1E4F1E4C4FF0804C98426B
:101D800009D0A04207D0604505D0A84203D0B04298
:101D900001D0B84204D122F0700E4A6842EA0E0225
:101DA000984209D0A04207D0604505D0A84203D090
:101DB000B04201D0B84203D122F44075CA682A4328
:101DC0004D6922F080022A4302608A68C2620A6872
:101DD0008262984201D0A04201D1096901630121C8
:101DE0004161F0BD002C01400004004000080040AB
:101DF000000C00400034014010B501F01F03012128
:101E0000046A99408C430462016A9A40114301625A
:101E100010BD10B5846842EA032224F47F440A43CB
:101E20002243826010BD826822F070020A4342F0B1
:101E30000701816070470000F0B5036A026A22F072
:101E40000102026242688469124E24F073050C6834
:101E50002C4323F002058B682B430D4DA84201D083
:101E6000B04205D123F00807CB683B4323F00403BD
:101E7000A84201D0B04205D14D6922F44072154309
:101E80008A692A4342608461496841630362F0BD04
:101E9000002C014000340140F0B5026A036A23F0CF
:101EA00010030362436884690D6824F4E64444EA3D
:101EB00005248D6822F0200242EA05120F4D104ED3
:101EC000A84201D0B04206D1CF6822F0800242EA97
:101ED000071222F04002A84201D0B04207D14D695A
:101EE00023F4406343EA85038D6943EA8503436035
:101EF0008461496881630262F0BD0000002C0140EA
:101F000000340140F0B5026A036A23F4807303626F
:101F10004368C46922F4007224F073050C68124E01
:101F20002C438D6842EA05220E4DA84201D0B042F2
:101F300006D1CF6822F4006242EA072222F48062CE
:101F4000A84201D0B04207D14D6923F4405343EA7F
:101F500005138D6943EA05134360C4614968C16391
:101F60000262F0BD002C01400034014030B5046A2B
:101F7000026A22F4805202624268C3690D6823F447
:101F8000E64343EA05238D6824F4005444EA05340B
:101F9000084DA84202D0084DA84204D14D6922F450
:101FA000804242EA85124260C3614968016404626A
:101FB00030BD0000002C01400034014010B5036A20
:101FC000046A24F001040462846924F0F00444EA01
:101FD000021423F00A020A438461026210BD10B5A4
:101FE000036A046A24F010040462846923F0A003E5
:101FF00024F4704444EA023243EA0111826101622E
:1020000010BD000070B5044600680169E26821F463
:102010004051114301612169A06808436169084387
:102020002168CA6841F20C639A430243CA6020687F
:102030004169A26921F44071114341611E49206840
:10204000884202D1FEF75CFC01E0FEF749FC00EBA0
:10205000C00101EB0012606864218000B2FBF0F364
:10206000B3FBF1F36FF018067343B2FBF0F5B2FB6C
:10207000F0F605EB8305322303EB0515B5FBF1F50F
:10208000B6FBF1F605F0F00505EB0615B2FBF0F630
:10209000B2FBF0F0B0FBF1F06FF01802504306EB2A
:1020A000800003EB0010B0FBF1F0216800F00F009E
:1020B0002844886070BD000000380140FEE74900F8
:1020C00050EAC12018BF04204A0D18BF40F001009B
:1020D00040F2FF72B2EB515F08BF40F002000128EE
:1020E00008BF052070470907090E002804DB00F12E
:1020F000E02080F80014704700F00F0000F1E020AD
:1021000080F8141D70472DE9F0414F1E00EBC70108
:102110000446D1E9000115461E4637F006020DD0EF
:102120002A46334601F02AFA7F1E04EBC703D3E99F
:10213000002300F08FFF37F00602F1D1022F25D0E7
:10214000042F13D0062F18BFBDE8F0812A4633466E
:1021500001F014FAD4E90A2300F07CFF2A46334642
:1021600001F00CFAD4E9082300F074FF2A46334644
:1021700001F004FAD4E9062300F06CFF2A46334646
:1021800001F0FCF9D4E9042300F064FF2A46334649
:1021900001F0F4F9D4E9022300F05CFF2A4633464B
:1021A00001F0ECF9D4E90023BDE8F04100F052BFA2
:1021B000002213461046014901F008B80000F03F24
:1021C000012201F01DBD00F045BF0022134610465C
:1021D000114600F0FBBF40F2013200204FF0E04119
:1021E00001F00EBD024A0020110701F009BD0000F8
:1021F00001FDFFFF2DE9F84F04460D4621F0004098
:1022000000917349814211DC7249884201DC06D198
:102210002CB120462946BDE8F84FFFF7D1BF6E48E4
:10222000002DCCBF6D496E49BDE8F88F6D498142E4
:1022300011DD6D498142D8BF4FF0FF366DDD20467C
:102240002946FFF73CFF042808BFFFF7CBFF2046D5
:102250002946BDE8F88F6549654F25F00045814264
:1022600033DD6449814219DD002632464FF0804358
:102270002046294600F0EEFE80468A46012220468E
:10228000294601F0BDFC00223B4601F09DFB424681
:10229000534600F09BFF04460D463EE00126002217
:1022A000BA463B462046294600F0D4FE80460F46FB
:1022B000002253462046294601F086FB42463B4613
:1022C00000F084FF04460D4627E04B4981421BDDA8
:1022D000DFF828A10226002253462046294601F0B5
:1022E0004DF900223B4600F0B5FE80460F46002225
:1022F00053462046294601F067FB42463B4600F024
:1023000065FF04460D4608E0032622462B460020C2
:102310003B4900F05BFF04460D4622462B46104623
:10232000194601F02BF98B46824602460B4601F016
:1023300025F907460246334888460B46062178446D
:10234000FFF7E1FE52465B4601F018F982462E483F
:102350008B463A46434605217844FFF7D4FE3A4679
:10236000434601F00BF902460B46002E50465946F3
:102370000CDA00F06FFE22462B4601F0FFF801B0A8
:1023800022462B46BDE8F04F01F02CBA00F062FE69
:1023900022462B4601F0F2F81C4A7A4402EBC603AF
:1023A000D3E9002301F010FB22462B4601F00CFB81
:1023B000174A7A4402EBC603D3E9002301F012FA6C
:1023C000009A002AB8BF81F00041BDE8F88F0000F4
:1023D000000010440000F07F182D4454FB21F93F09
:1023E000FB21F9BF0000DC3F0000203E0000F33F6E
:1023F0000000F03F0000E63F008003400000F83F8F
:102400000000F0BF261B0000E41A0000821A000042
:102410004A1A0000D2B0FEF73DF9FFF770FCFFF753
:10242000B9F8FFF721F9FFF783F9FFF7D9F9FFF7BB
:102430000DFAFFF7B3F900216F48FEF7D9FF042129
:102440006D48FEF7D5FF08216B48FEF7D1FF0C2140
:102450006948FEF7CDFF04216848FEF7FFFD04211F
:102460006748FEF7FBFD6748FEF7BCFCFFF70CFB77
:10247000FFF73CFC4FF4A072634902A8FDF7C6FECB
:102480006248DDE90212C0E90412DDE90412C0E984
:1024900006120021C0E908111424DFF87491012606
:1024A0004FF066380DF1080505EB06174246D7E9EF
:1024B00000014B4601F062F8C7E90001D7E90201CB
:1024C00042464B4601F05AF8761CC7E90201A64283
:1024D000EADBDFF84081DFF84091032605EB0617C1
:1024E0004246D7E900014B4601F048F8C7E9000130
:1024F000D7E9020142464B4601F040F8761CC7E995
:102500000201A642EADB052605EB06174246D7E99B
:1025100000014B4601F032F8C7E90001D7E902019A
:1025200042464B4601F02AF8761CC7E90201A64252
:10253000EADB082605EB06174246D7E900014B46C1
:1025400001F01CF8C7E90001D7E9020142464B46F9
:1025500001F014F8761CC7E90201A642EADBDFF8B5
:10256000BC80DFF8BC900D2605EB06174246D7E984
:1025700000014B4601F002F8C7E90001D7E902016A
:1025800042464B4600F0FAFF761CC7E90201A6421C
:10259000EADBDFF89080DFF89090102605EB061755
:1025A0004246D7E900014B4600F0E8FFC7E90001C9
:1025B000D7E9020142464B4600F0E0FF761CC7E92E
:1025C0000201A642EADB194F012600BF05EB061007
:1025D000D0E90212CDE90012D0E9002300203946EB
:1025E000FFF796F91420FDF733FF761CA642EDDBCA
:1025F000FFF77CFBFEE70000F80000204001002010
:10260000D001002088010020903C0008D00000206C
:102610006666E63F9A9999999999F13FCDCCCCCCD1
:10262000CCCCF03FAE47E17A14AEEF3F0000F03F74
:102630002DE9F04D1D460C4698B0174621F000419B
:1026400023F00043002814BF4FF0010C4FF0000CA2
:102650000CEB440CFE4A0CEB02064FEA620C66459A
:102660002BD33E0018BF012606EB45061644F94A57
:10267000964222D3F84A53EA070C02D0944205D17D
:1026800048B918B000201146BDE8F08D002808BFF9
:102690004FF0000C01D04FF0010C0CEB440212F58E
:1026A000001F0AD8002F14BF4FF0010C4FF0000C90
:1026B0000CEB450212F5001F07D918B03A462B461D
:1026C0002146BDE8F04DFFF77EBD0022DFF88CA368
:1026D000002CB8BF534526DADFF884C36345A8BF92
:1026E000022220DADFF870C39C451CDCDFF874C3DB
:1026F0000CEB235CBCF1140F08DDCCF1340627FA97
:1027000006FC0CFA06F6BE420DD108E05FB9CCF12A
:10271000140623FA06FC0CFA06F69E4203D10CF0CE
:102720000102C2F1020251EA000C19D1002D17DAA0
:10273000002C18BF022A01D0012A07D00220FDF781
:10274000C6FD18B0BDE8F04DFFF732BD0220FDF721
:10275000BEFDFFF72DFD18B081F00041BDE8F08D02
:10276000B7F1000C6CD1534525D104F1804212F52C
:10277000801201BF00280020B74918B008BFBDE88B
:10278000F08DB548884207DC002DA1BF6046294680
:1027900018B0BDE8F08D07E0281E05DA80F0004192
:1027A00018B06046BDE8F08DAF497944D1E9000129
:1027B00018B0BDE8F08DDFF8A0C2634525D1002D2B
:1027C0001FDA19B1514512D1D8B909E0002840F0FB
:1027D000EC82A24A214618B062F31E01BDE8F08DDA
:1027E0000020214618B060F31E01BDE8F08D08DA24
:1027F00018B02346BDE8F04D02460020614600F0C7
:10280000E5BC18B02146BDE8F08D514518DAB5F1A8
:10281000804F0DD0A5F1005CBCF1FF5C10D1B4F18C
:10282000000C0DDB18B06146BDE8F04D00F0ECBBCC
:10283000234618B00246BDE8F04D194600F09EBE92
:10284000060024F0004C3BD1D9B1514533D1002CC6
:1028500006DD002DA1BF0020514618B0BDE8F08D67
:10286000002C01DD002D1BDB002C13DA002D11DB09
:10287000012A4FF0000014BF78497C4918B0BDE828
:10288000F08D022A18BF002C0AD0012A08D1002C92
:1028900006DA0AE0002CB8BF002D11DA012A04D0B4
:1028A000002018B00146BDE8F08D18B000204FF0B0
:1028B0000041BDE8F08DA1F14050B0F17F601AD029
:1028C000012000EBE47050EA020421D0624C521E59
:1028D0004FF0000B104304BF4FF0000B644C6548F1
:1028E00083427CDD644A654893421FDD884217DBE2
:1028F000002D25DB37E0002C00DA4AB1022A0CBF9C
:1029000001204FF0FF3018B0BDE8F04D00F0E3BDFE
:102910000120FDF7DCFC18B0BDE8F04DFFF755BC19
:102920004D4A8A4202DC002D0ADC1CE0814202DAB8
:10293000002D18DA04E0484B994220DD002D12DD0D
:102940000220FDF7C4FCFFF746FC05460E460022B8
:1029500053465846214600F011FE18B066F31E019A
:102960002846BDE8F08D0220FDF7B1FCFFF73AFCE8
:102970000A46214618B062F31E01BDE8F08D002220
:102980003046614601F020F880460E466FF00102A5
:1029900001F036F94FF05532394B00F023FF424633
:1029A000334600F0EBFD0022364B00F01BFF824661
:1029B0004246334604911046194600F0DFFD524668
:1029C000049B00F0DBFD8A4600904FF0C0422E4B86
:1029D0004046314600F0D2FD2C4A2B4B00E027E068
:1029E000CDE906015146009800F0C8FD82460191EC
:1029F000274A284B4046314600F0C0FD5246019B15
:102A000000F0E2FF82460B4602460591DDE9060131
:102A100000F020FBDDE9062300268846304600F062
:102A2000D3FF5246059B00F0DDFE024600F07EB962
:102A30000020B1F5801F07DA35223046614601F0EB
:102A4000DFF806466FF0340000EB215024E0000070
:102A5000FFFF1F00FFFF0F000000F03F0000F07FAE
:102A60000000404301FCFFFF721700000000F0FF70
:102A70000000F0BF0000E0410000F043FFFFEF3F27
:102A80005555D53F0000E03F4715F73FFE822B65C7
:102A900044DF5DF80BAE543EA0F2FF300190C1F36D
:102AA000130040F07F6141F040510291FE4988429D
:102AB000D8BF002004DDFD498142C8BF012001DDEF
:102AC0000D9008E000200D900198401C01900298A4
:102AD000A0F5801002900299F54878440B910D9969
:102AE00000EBC100D0E900230F9330460A920B9906
:102AF00000F06AFFCDE90601DDE90A2130460F9BAF
:102B000000F0A8FA02460B460020EA4900F05EFBFE
:102B1000059102460B460090DDE9060100F02EFD0E
:102B20001490E5488A464FF00008784402990068FE
:102B300012904FF0005040EA61010D980F9B01EB9D
:102B4000804000F5002109910A9A129800F03CFF9C
:102B500032460B9B00F046FE4246534600F00EFD07
:102B60000646029140465146099B129A00F006FD26
:102B7000DDE9062300F036FE3246029B00F024FF1A
:102B8000059B009A00F0FAFC0091149A04905346B9
:102B90001046194600F0F2FC06460246C7480B46AE
:102BA000029106217844FFF7AEFACDE90510029BA9
:102BB00032461046194600F0E1FCDDE9053200F02E
:102BC000DDFC05910646534640461946149A00F02E
:102BD00041FA009B049A00F0D1FC3246059B00F0BC
:102BE00039FACDE90510424653461046194600F021
:102BF000C5FC0022B24B02910A9000F02BFADDE9ED
:102C0000053200F027FA0E464246AD4B404600F032
:102C1000DBFE029B0A9A00F0D7FEDDE9053200F0E8
:102C2000E1FD424602910A9033461046514600F0BB
:102C3000A5FCCDE906015346149A02990A9800F0C2
:102C40009DFC8A460290334642460099049800F063
:102C500095FC5346029A00F0FDF982460B46024667
:102C60000591DDE9060100F0F5F9DDE90623002014
:102C70008846064600F0A8FE5246059B00F0B2FDCD
:102C8000824609914FF060428E4B3046414600F03B
:102C900075FC049006918C4A8A4B5046099900F0C5
:102CA0006DFC82460291894A894B3046414600F0CC
:102CB00065FC5246029B00F0CDF9864B7B440D9A91
:102CC00003EBC203D3E9002300F0C4F90E9007918F
:102CD000019800F000FC0591DDE9061382460E9A8A
:102CE000049800F0B7F97C4A7A440D9B02EBC303C9
:102CF000D3E900230093029200F0ACF95246059B01
:102D000000F0A8F90026884652463046059B00F0A0
:102D10005BFE009B029A00F057FE069B049A00F0AF
:102D200053FE079B0E9A00F05DFD024600200B4605
:102D300002903846294600F021FC824601912B463C
:102D400038461946029A00F03FFE3246434600F0EC
:102D500015FC5246019B00F07DF907468A46324633
:102D600043462946029800F009FC05460E463A46BD
:102D7000534600F06FF9594A8846914221DBA8EB8F
:102D8000020353EA000210D12A46334600F01CFE2B
:102D9000CDE90401524A534B3846514600F05AF9E6
:102DA000DDE9042300F0E8FC21D20220FDF78FFAD0
:102DB000FFF711FA0A46214618B062F31E01BDE87A
:102DC000F08D494B28F000429A4210D3474A08EB55
:102DD000020353EA00027FF4C6AD2A46334600F0F0
:102DE000F3FD3A46534600F0C7FC7FF6BCAD002227
:102DF000019228F000403E493E4A01EB20518242B8
:102E000023DA481C4FF4801121FA00F040443A4A7A
:102E1000C0F30A517A44394BA1F2FF31CB4020EA8A
:102E20000303C0F3130040F48010C1F11401C84043
:102E300012680190B8F1000FBCBF404201902846D3
:102E4000314600F0C1FD05460E462A463346384657
:102E5000514600F0FFF84FF000084246284B40462C
:102E6000059100F08BFBCDE90601264A264B404632
:102E7000059900F083FB009102902A4633464046B4
:102E8000059900F0A1FD3A46534600F0ABFC1F4AFD
:102E90001F4B00F073FB009B029A00F0DBF8074623
:102EA000884602460B4635E08E9803007AB60B0042
:102EB000BA1300000000F03FF213000020130000DE
:102EC0000000084009C7EE3FFD033ADCF5015B1442
:102ED000E02F3EBEF8110000BC1100000000904041
:102EE000FE822B654715973C00CC904000346F3F25
:102EF00001FCFFFF0000E03F08110000FFFF0F0092
:102F0000432EE63F396CA80C615C20BEEF39FAFE17
:102F1000422EE63FDDE9060100F09CF8DDE90623DC
:102F200005460E4600F050FD3A46434600F05AFC76
:102F30000F462A46334600901046194600F01EFB05
:102F4000824602462E4888460B4605217844FFF704
:102F5000DAF85246434600F011FB2A46334600F0A9
:102F600041FC80468A463B4628463146009A00F09E
:102F700005FB3B46009A00F06DF806910090002298
:102F80004FF080434046514600F01EFD0F460C9026
:102F9000424653462846314600F0F0FA3B460C9A2A
:102FA00000F014F9069B009A00F00EFD2A46334605
:102FB00000F00AFD0022134B00F014FC05460198B6
:102FC0000E4601EB00510815002810DC284631465A
:102FD000019A00F015FEFFF772F8042808BFFFF70A
:102FE00001F928463146019A00F00AFE05460B46D3
:102FF00018B02A4658462146BDE8F04D00F0BEBA4A
:10300000A80F00000000F03F2DE9F04106460F46F2
:1030100000F0F4FB041E0D4618BF0120284320F0E9
:103020000040C0F17F6000F1E040C00F0ED0301CC6
:1030300018BF0120384320F00040C0F17F6000F14C
:10304000E040C00F04BF0120FDF741F920462946AA
:10305000BDE8F08110B591EA030F48BF83F000434B
:1030600000F1BA84841A71EB030C05D2121943EBF8
:103070000C03001B61EB0C01DFF824E14FEA115453
:10308000A4EB135C1EEA430F18BF9EEA445F73D0A3
:1030900023EA0E03DCF1200E21EA045143F48013ED
:1030A00032D322FA0CFE10EB0E0023FA0CFE41EB99
:1030B0000E01CCF1200E03FA0EFE10EB0E0051F1C2
:1030C0000001B1F5801FCCF1200E32D201EB04518A
:1030D00012FA0EF2BDE8104058BF7047401C38BFCE
:1030E0005FEA420218BF7047002814BF20F00100B9
:1030F00041F100014FEA410313F5001F38BF70474B
:10310000A1F1C04100F032BB012A43EB0302ACF154
:10311000200CDCF11F0E32BF4FF0000E23FA0CF32F
:1031200010EB030041EB0451B4EB115FD0D0A1EBE5
:10313000045101F5801149085FEA300001EB0451A8
:103140000ED350F1000038BF12FA0EFE08D1BDE8D0
:103150001040C9E7401C38BF5FEA4202CAD1C3E74A
:10316000BDE810404FEA410313F5001F38BF704718
:10317000A1F1C04100F0FABA9EEA445F08D011EA1A
:103180005E0FBDE8104004BF01F000410020704711
:10319000BDE8104070B500F09BFA00BF64FBBE3E76
:1031A0000000E0FF02494FF0000000F0F7BC00BF54
:1031B0000000F87F491058BFC1F140415B1058BF73
:1031C000C3F140438B42EFF3008070472DE9C041CB
:1031D00030B4DFF8A0C23CEA111418BF3CEA131463
:1031E00000F0EC8081EA03051CEA111444EAD5746E
:1031F00018BF1CEA131500F0C780A4EB05044FF0BC
:10320000004545EAC12145EAC32341EA505143EA5A
:10321000525304F17F74994204F500344FEAC02000
:103220004FEAC22208BF904200F09C804FEA13652B
:103230000FF24016765D4FEA134506FB05F7C7F11E
:10324000807706FB07F74FEAD737A7FB036876427C
:10325000C8F58038A7FB06CE38BFA8F1010807FBE8
:1032600008E64FF0000EA6FB028CE6FB03CEDCF175
:10327000000CCEF1004E38BFAEF1010EA6FB0C588B
:103280004FF000074FF00005E6FB0E87A1FB08C6D4
:10329000A0FB07CE16EB0E0645F10005E1FB076526
:1032A00015F1E04E7EBFA4F580345FEA46066D411D
:1032B00016F1800745F100054FEA17274FEA066629
:1032C00047EA0567A6F1DE46B6F1805F4FEA1525AD
:1032D0001FD9384624F0010C05EBC471BCF1FE6F18
:1032E00001EB0C1102D8F0BCBDE8008124425CBFA8
:1032F00001F5801E9EEAC47F02D4F0BCBDE80081C7
:10330000244238D4F0BCA1F1C041BDE8004100F036
:103310002DBA4FEAD22242EA43524FEAD323A7FB07
:1033200002864FEAD02040EA415007FB03661EEABE
:103330000E0F4FEAD12105FB026658BFA6EB0056DF
:10334000B6EB00564FEA520E4EEAC37E18EB0E0E55
:1033500056EB530EBDD518EB02085E417F1C55F1AC
:103360000005B6E74FF480154FF000074FF0000658
:103370004FF00008ADE7F0BC4FF0000001F1C04194
:1033800001F00041BDE8008111EA0C1F0CEA1315A1
:1033900000D00CE013EA0C1F00F025804FF0000075
:1033A000F0BC81EA030101F00041BDE80081F0BCFE
:1033B000BDE8004181EA030100F0D8B9F0BCBDE8E6
:1033C000004170B500F084F9097EFC3E00F007B8BA
:1033D00081EA03014FF0000001F00041704781EAEB
:1033E000030100F0C3B9F0BCBDE800414FF000009C
:1033F00021497047FFFDFBF9F7F5F4F2F0EEEDEB34
:10340000E9E8E6E4E3E1E0DEDDDBDAD8D7D5D4D3E2
:10341000D1D0CFCDCCCBCAC8C7C6C5C4C2C1C0BF2E
:10342000BEBDBCBBBAB9B8B7B6B5B4B3B2B1B0AF34
:10343000AEADACABAAA9A8A8A7A6A5A4A3A3A2A118
:10344000A09F9F9E9D9C9C9B9A99999897979695D3
:1034500095949393929191908F8F8E8E8D8C8C8B6F
:103460008B8A8989888887878685858484838382F7
:10347000828181800000FF070000F87F4FEA11532E
:10348000A3F58063D3F11E03A8BFD3F1200C08DBA2
:103490004FF0004242EAC12252EA505232FA03F09F
:1034A000704709420BD4102BC4BF0020704703F5AE
:1034B000787CBCF1FF3F05D04FF0FF3070474FF0F4
:1034C0000000704770B500F003F900BF49922480F6
:1034D00000207047F0E710F0004248BF4042B0FAC9
:1034E00080F310FA03F10AD0C3F11D0303F58063E2
:1034F0004FEA415002EB035202EBD12170474FF0EB
:103500000000704751EA030C17D41CF5801F58BF08
:10351000BCF5801F00F10680994218BF704708BFB4
:103520009042704707D711F5801F58BF13F5801FD1
:1035300019D499427047894270471CF5801F08D5FD
:10354000BCF5801FF7D58B4218BF704708BF824279
:1035500070474FF4001C1CEB410F38BF1CEB430FAE
:1035600001D28B42704770B500F0B2F89224490046
:103570004FF000514FF08053FFF71CBEDFF848C1F9
:1035800070B51CEA111E1EBF1CEA13159EEA0C0F33
:1035900095EA0C0F00F06F8081EA030423EA4C13D4
:1035A0004EEAD47E21EA4C1141F4801143F4801399
:1035B000AE44A1FB024CA0FB0365AEF17F7E361941
:1035C00055EB0C05A1FB034C4CF10003A0FB021CC6
:1035D00016EB0C06654153F10003094218BF46F093
:1035E000010613F4007F0BD14FEA03314FEA053097
:1035F000340341EA155140EA16506FF003020AE025
:103600004FEAC3214FEAC520F40241EA555140EA8E
:1036100056506FF0020202EB2E4201EB025585EA92
:10362000CE710AD05FEA440C18BF24F0004450F178
:10363000000041F1000120EAD47040F2FE7C6245B6
:1036400000D270BDA84214BF4FF080444FF04044F8
:10365000002E08BF0024BEF1806FA8BFA1F1C041B9
:10366000BDE8704080F282804FF0000001F1C0415F
:1036700001F0004170479EEA0C0F0CEA131518BFC9
:1036800095EA0C0F06D04FF0000081EA030E0EF011
:10369000004170BD00F01CF88900013E00F007B841
:1036A00000F009B84FEA430C5FEA5C5C08D081EA9D
:1036B000030100F05BB84FEA410C5FEA5C5CF6D1B5
:1036C0004FF00000014970470000FF070000F87F3D
:1036D0000EF1020E2EF0030E5EF8046B364205D496
:1036E000012A43EB030515F5001F12D8012841EB11
:1036F000010C1CF5001F0CD80ED14FEAD17C15F53A
:10370000001F0CEB4C0C0CF1020C08BF4CEBD37CF3
:1037100004E04FF0080C01E04FEAD37C0CEB4C05C1
:1037200026FA05F606F00706B6F1040C06D20EEBF3
:10373000860CBDE870404CF0010C6047DFE80CF0EF
:10374000090B02024FF000414FF00000A1F50021EB
:1037500070BD19461046012851EB010418BFD4F57D
:10376000001484BF002001F0004170BD0808A0F5DE
:1037700000114FEA3101704753EA010C17D41CF5D0
:10378000801F58BFBCF5801F00F106808B4218BF18
:10379000704708BF8242704707D713F5801F58BF94
:1037A00011F5801F19D48B4270479B4270471CF55E
:1037B000801F08D5BCF5801FF7D5994218BF704708
:1037C00008BF904270474FF4001C1CEB430F38BFFA
:1037D0001CEB410F01D2994270470FB40CBC03BCE3
:1037E000FFF7C1BE91EA030F10B581F000413FF52C
:1037F00039AC83F0004300F0EFB800002DE9F04150
:1038000001F5801CBCF5001FC0F2C3804FEA115CBB
:1038100021EA0C510CF1FD0C41F480115FEA5C0CC3
:103820000CF5C07C01D3400049413DA4890241EA26
:10383000905187028E0E0A0CA45D04FB04F602FB75
:1038400006F6C6F14046A4FB0662F60D46EA42269D
:1038500006FB06F4A4FB01235242C3F1404338BFE8
:103860005B1EA6FB02420024E6FB0324D20B42EAC5
:103870004446A6FB0623A1FB02E2A3FB07E4A4182F
:103880004FF0000252F10002E3FB01426442C2F138
:10389000404E38BFAEF1010EA6FB04234FF00002EC
:1038A000E6FB0E32A2FB03464FF00004B61954F1BA
:1038B0000004E2FB0264A1FB06E6A4FB07E816EBAA
:1038C00008064FF0000858F10008E4FB0168764252
:1038D000C8F1405838BFA8F10108A2FB06E4A3FBD9
:1038E00008E52D194FF0000454F10004E2FB0854E0
:1038F000A1FB05E6A7FB04E818EB06084FF000065D
:1039000056F10006E1FB048618F1200556F1000689
:10391000A809A8F11B08B10908F03F08B8F10A0F7F
:1039200040EA86601CD901EB0C51BDE8F08100BF74
:10393000FCF5EEE8E2DDD8D3CFCBC7C3C0BDB9B646
:10394000B4B1AEACA9A7A5A3A19F9D9B9A9896954B
:103950009392908F8D8C8B898887868584838281D2
:10396000A0FB006800FB01F208EB4208B8EB8728D7
:1039700007D5341858EB0104D5D5401C51F100018E
:10398000D1E7341A78EB0104CDD4401E71F1000167
:10399000C9E75FEA4C0C5FEA9C5C0DD105D34FF0A0
:1039A000000001F00041BDE8F081BDE8F04170B5D4
:1039B000FFF78EFE6DDBFFBEBDE8F0414FF000006B
:1039C000004970470000F87F10B591EA030F48BF27
:1039D00083F000433FF546AB841A71EB030C07D22A
:1039E00012198CF0004C43EB0C03001B61EB0C0133
:1039F000DFF8A4E14FEA1154A4EB135C1EEA430F75
:103A000018BF9EEA445F00F0B08023EA6E03524282
:103A100021EA0451C3EB6E0338BF5B1EDCF1200EBC
:103A200025D322FA0CFE10EB0E0043FA0CFE41EBFC
:103A30000E01CCF1200E03FA0EFE10EB0E0051F138
:103A40000001CCF1200E29D412FA0EF201EB045140
:103A5000BDE8104058BF7047401C1CBFB2F1004F7A
:103A6000704700280CBF491C20F00100704712EB82
:103A7000020E43EB030218BF4FF0010E4EEA420262
:103A8000ACF1200CDCF11E0E54D943FA0CFE10EB05
:103A90000E0051F1FF31CCF11E0ED5D50EF1010E05
:103AA00012FA0EFE404141EB010101EB445C5FEA7A
:103AB0005C5C10D910EBDE7001EB045138BFBEF135
:103AC000004FBDE8104018BF704700280CBF491CCC
:103AD00020F00100704730D24FEAD42C11F50011CC
:103AE00024F400641BD0B1FA81F20B3AA41AA41E8C
:103AF000D2F12003914030FA03F31943904001EBD7
:103B0000CC71002C01EB0451BDE81040A8BF7047F8
:103B100001F1C0414FF0000001F000417047B0FAE0
:103B200080F310FA03F100D110BDE41A173C4805E8
:103B3000C90AE4E701EB045110BD491001EB04513F
:103B4000BDE810404FEA300002E04FF0000170473E
:103B50004A0008BF0042F8D0B2F5001F28BF7047E6
:103B600001F000414FF0000070479EEA445F07D02B
:103B700011EA5E0FBDE8104004BF0021002070472D
:103B8000BDE8104070B5FFF7A3FD00BF40DFF63E73
:103B900083F00041104670470000E0FF0CF00F0377
:103BA000092B08BF082000F059800A2B0BD0082BE6
:103BB00018BF704708BF1CF0400F0AD04FF000003C
:103BC0004FF0000170471CF0400F18BF4FF000404D
:103BD00070471CF0100F08D020F0704300F07F42B7
:103BE00042EAD3014FEA4370704700F0604021F091
:103BF0007F4242EA000201F07F4040EA7270704763
:103C00004FF0FF0C4CF4E06C1CEA11531CBF9CEA13
:103C1000030C9445C2BFDA4201EB02517047002BFE
:103C20000DD0BCF1000F0FD0002A01F00041A4BF5D
:103C300041F0E04141F07F614FF00000704701F03A
:103C400000414FF00000704750EA01334FF09B0CE9
:103C500018BF4CF0806C7FF4A5AA70471CF4801F3D
:103C600011D01CF4E02F03D06FEACC31490070472B
:103C70004FF04050EFF3008222F0704242EA00021F
:103C800082F3008870474FF000007047000000008A
:103C90007A19C5724B6B1D40697407B13305F93F42
:103CA000575BB1BFEC3E2B40096D3997E24A184093
:103CB0006891ED7C3FD5314071AC8BDB68002A40C8
:103CC00096B20C71AC3B3340F38E5374248735406D
:103CD000567DAEB6625F3140AA8251499DA03E40FA
:103CE00058CA32C4B14E28402F6EA301BC95434040
:103CF000D218ADA3AAC90E4005A3923A01054740C8
:103D0000545227A089B01BC0E4141DC9E51F4940C7
:103D100074B515FBCB3E33C067D5E76A2B864940A7
:103D200000000000000040C000000000000048400B
:103D300088855AD3BCFB45C086C954C1A884444079
:103D4000F0164850FCF84AC00D71AC8BDB783E4051
:103D5000D656EC2FBB6F4EC0401361C3D3FB30402F
:103D6000F38E537424F74FC0A5BDC11726D3F83F77
:103D700055C1A8A44E504FC05305A3923A412DC03F
:103D80003EE8D9ACFA6C4CC0C7293A92CB3F3EC052
:103D900019E25817B77147C0C2172653050346C02A
:103DA0003333333333B340C004560E2DB2654BC0AA
:103DB000AEB6627FD95D31C097FF907EFBD24EC018
:103DC000BADA8AFD65771DC097FF907EFBD24FC09F
:103DD000010202030405060708090A0B0C0D0E0F69
:103DE000101000000000000000000102030406079C
:103DF00008090000000001020304000000000000A8
:103E00004FBB610567ACDD3F182D4454FB21E93FF2
:103E10009BF681D20B73EF3F182D4454FB21F93FE1
:103E2000E2652F227F2B7A3C075C143326A6813C67
:103E3000BDCBF07A8807703C075C143326A6913C12
:103E4000C4EB98999999C9BF711623FEC671BCBF7E
:103E50006D9A74AFF2B0B3BF9AFDDE522DDEADBFE6
:103E60002F6C6A2C44B4A2BF0D5555555555D53FFE
:103E7000FF8300922449C23F6E204CC5CD45B73F19
:103E8000513DD0A0660DB13FEB0D76244B7BA93F91
:103E900011DA22E33AAD903F000000000000F03F4D
:103EA000000000000000F83F0000000000000000DB
:103EB0000000004003B8E23F0000000000000000E6
:103EC00006D0CF43EBFD4C3E033333333333E33F74
:103ED000FFAB6FDBB66DDB3F4D268F515555D53FA0
:103EE00001411DA96074D13F65DBC9934A86CD3F6E
:103EF000EF4E454A287ECA3F3E5555555555C53F5C
:103F000093BDBE166CC166BF2CDE25AF6A56113F4D
:103F1000F16BD2C541BDBBBED0A4BE726937663E4F
:103F20000000000000000000483F000800000020E2
:103F3000100000006C010008583F0008100000202D
:103F4000B008000088010008010000001000000017
:083F5000000000000024F40051
:0400000508000131BD
:00000001FF
